{
  "contractName": "Match",
  "abi": [
    {
      "constant": false,
      "inputs": [
        {
          "name": "_team1",
          "type": "string"
        },
        {
          "name": "_team2",
          "type": "string"
        }
      ],
      "name": "createTeam",
      "outputs": [],
      "payable": false,
      "stateMutability": "nonpayable",
      "type": "function"
    },
    {
      "constant": false,
      "inputs": [],
      "name": "renounceOwnership",
      "outputs": [],
      "payable": false,
      "stateMutability": "nonpayable",
      "type": "function"
    },
    {
      "constant": true,
      "inputs": [],
      "name": "owner",
      "outputs": [
        {
          "name": "",
          "type": "address"
        }
      ],
      "payable": false,
      "stateMutability": "view",
      "type": "function"
    },
    {
      "constant": false,
      "inputs": [
        {
          "name": "_newOwner",
          "type": "address"
        }
      ],
      "name": "transferOwnership",
      "outputs": [],
      "payable": false,
      "stateMutability": "nonpayable",
      "type": "function"
    },
    {
      "inputs": [
        {
          "name": "_team1Name",
          "type": "string"
        },
        {
          "name": "_team2Name",
          "type": "string"
        },
        {
          "name": "_owner",
          "type": "address"
        }
      ],
      "payable": false,
      "stateMutability": "nonpayable",
      "type": "constructor"
    },
    {
      "anonymous": false,
      "inputs": [
        {
          "indexed": false,
          "name": "playerAddress",
          "type": "address"
        },
        {
          "indexed": false,
          "name": "teamAddress",
          "type": "address"
        },
        {
          "indexed": false,
          "name": "playerBet",
          "type": "uint256"
        },
        {
          "indexed": false,
          "name": "contractBalance",
          "type": "uint256"
        }
      ],
      "name": "PlayerAdded",
      "type": "event"
    },
    {
      "anonymous": false,
      "inputs": [
        {
          "indexed": false,
          "name": "winnerAddress",
          "type": "address"
        },
        {
          "indexed": false,
          "name": "winnerTeamName",
          "type": "string"
        }
      ],
      "name": "WinnerReceived",
      "type": "event"
    },
    {
      "anonymous": false,
      "inputs": [
        {
          "indexed": false,
          "name": "from",
          "type": "address"
        },
        {
          "indexed": false,
          "name": "to",
          "type": "address"
        },
        {
          "indexed": false,
          "name": "amount",
          "type": "uint256"
        },
        {
          "indexed": false,
          "name": "contractBalance",
          "type": "uint256"
        }
      ],
      "name": "HousePaid",
      "type": "event"
    },
    {
      "anonymous": false,
      "inputs": [
        {
          "indexed": false,
          "name": "from",
          "type": "address"
        },
        {
          "indexed": false,
          "name": "to",
          "type": "address"
        },
        {
          "indexed": false,
          "name": "amount",
          "type": "uint256"
        },
        {
          "indexed": false,
          "name": "contractBalance",
          "type": "uint256"
        }
      ],
      "name": "PlayerPaid",
      "type": "event"
    },
    {
      "anonymous": false,
      "inputs": [
        {
          "indexed": false,
          "name": "team1Address",
          "type": "address"
        },
        {
          "indexed": false,
          "name": "team1Name",
          "type": "string"
        },
        {
          "indexed": false,
          "name": "team2Address",
          "type": "address"
        },
        {
          "indexed": false,
          "name": "team2Name",
          "type": "string"
        }
      ],
      "name": "TeamCreated",
      "type": "event"
    },
    {
      "anonymous": false,
      "inputs": [
        {
          "indexed": true,
          "name": "previousOwner",
          "type": "address"
        }
      ],
      "name": "OwnershipRenounced",
      "type": "event"
    },
    {
      "anonymous": false,
      "inputs": [
        {
          "indexed": true,
          "name": "previousOwner",
          "type": "address"
        },
        {
          "indexed": true,
          "name": "newOwner",
          "type": "address"
        }
      ],
      "name": "OwnershipTransferred",
      "type": "event"
    },
    {
      "constant": false,
      "inputs": [
        {
          "name": "_playerAddress",
          "type": "address"
        }
      ],
      "name": "addPlayer",
      "outputs": [],
      "payable": true,
      "stateMutability": "payable",
      "type": "function"
    },
    {
      "constant": false,
      "inputs": [],
      "name": "getMatchResult",
      "outputs": [],
      "payable": false,
      "stateMutability": "nonpayable",
      "type": "function"
    },
    {
      "constant": false,
      "inputs": [],
      "name": "payoutHouse",
      "outputs": [],
      "payable": false,
      "stateMutability": "nonpayable",
      "type": "function"
    },
    {
      "constant": false,
      "inputs": [],
      "name": "payoutPlayers",
      "outputs": [],
      "payable": false,
      "stateMutability": "nonpayable",
      "type": "function"
    }
  ],
  "bytecode": "0x60806040523480156200001157600080fd5b50604051620023fb380380620023fb833981018060405281019080805182019291906020018051820192919060200180519060200190929190505050336000806101000a81548173ffffffffffffffffffffffffffffffffffffffff021916908373ffffffffffffffffffffffffffffffffffffffff160217905550806000806101000a81548173ffffffffffffffffffffffffffffffffffffffff021916908373ffffffffffffffffffffffffffffffffffffffff16021790555080600960006101000a81548173ffffffffffffffffffffffffffffffffffffffff021916908373ffffffffffffffffffffffffffffffffffffffff16021790555082600590805190602001906200012692919062000149565b5081600690805190602001906200013f92919062000149565b50505050620001f8565b828054600181600116156101000203166002900490600052602060002090601f016020900481019282601f106200018c57805160ff1916838001178555620001bd565b82800160010185558215620001bd579182015b82811115620001bc5782518255916020019190600101906200019f565b5b509050620001cc9190620001d0565b5090565b620001f591905b80821115620001f1576000816000905550600101620001d7565b5090565b90565b6121f380620002086000396000f30060806040526004361061008e576000357c0100000000000000000000000000000000000000000000000000000000900463ffffffff16806301a682c1146100935780634a68638114610142578063715018a6146101595780638da5cb5b14610170578063b1275f9a146101c7578063c448a6ac146101fd578063f2fde38b14610214578063fe01ba9514610257575b600080fd5b34801561009f57600080fd5b50610140600480360381019080803590602001908201803590602001908080601f0160208091040260200160405190810160405280939291908181526020018383808284378201915050505050509192919290803590602001908201803590602001908080601f016020809104026020016040519081016040528093929190818152602001838380828437820191505050505050919291929050505061026e565b005b34801561014e57600080fd5b50610157610a7a565b005b34801561016557600080fd5b5061016e610cab565b005b34801561017c57600080fd5b50610185610dad565b604051808273ffffffffffffffffffffffffffffffffffffffff1673ffffffffffffffffffffffffffffffffffffffff16815260200191505060405180910390f35b6101fb600480360381019080803573ffffffffffffffffffffffffffffffffffffffff169060200190929190505050610dd2565b005b34801561020957600080fd5b50610212610f88565b005b34801561022057600080fd5b50610255600480360381019080803573ffffffffffffffffffffffffffffffffffffffff1690602001909291905050506114f2565b005b34801561026357600080fd5b5061026c611559565b005b60006102786118b7565b60006102826118b7565b6000809054906101000a900473ffffffffffffffffffffffffffffffffffffffff1673ffffffffffffffffffffffffffffffffffffffff163373ffffffffffffffffffffffffffffffffffffffff161415156102dd57600080fd5b85306102e76118fd565b80806020018373ffffffffffffffffffffffffffffffffffffffff1673ffffffffffffffffffffffffffffffffffffffff168152602001828103825284818151815260200191508051906020019080838360005b8381101561035657808201518184015260208101905061033b565b50505050905090810190601f1680156103835780820380516001836020036101000a031916815260200191505b509350505050604051809103906000f0801580156103a5573d6000803e3d6000fd5b50935083836000019073ffffffffffffffffffffffffffffffffffffffff16908173ffffffffffffffffffffffffffffffffffffffff1681525050858360200181905250600083604001818152505060048490806001815401808255809150509060018203906000526020600020016000909192909190916101000a81548173ffffffffffffffffffffffffffffffffffffffff021916908373ffffffffffffffffffffffffffffffffffffffff16021790555050836003876040518082805190602001908083835b602083101515610493578051825260208201915060208101905060208303925061046e565b6001836020036101000a038019825116818451168082178552505050505050905001915050908152602001604051809103902060006101000a81548173ffffffffffffffffffffffffffffffffffffffff021916908373ffffffffffffffffffffffffffffffffffffffff16021790555082600160008673ffffffffffffffffffffffffffffffffffffffff1673ffffffffffffffffffffffffffffffffffffffff16815260200190815260200160002060008201518160000160006101000a81548173ffffffffffffffffffffffffffffffffffffffff021916908373ffffffffffffffffffffffffffffffffffffffff16021790555060208201518160010190805190602001906105a792919061190e565b506040820151816002015560608201518160030190805190602001906105ce92919061198e565b5060808201518160040190805190602001906105eb929190611a18565b5090505084306105f96118fd565b80806020018373ffffffffffffffffffffffffffffffffffffffff1673ffffffffffffffffffffffffffffffffffffffff168152602001828103825284818151815260200191508051906020019080838360005b8381101561066857808201518184015260208101905061064d565b50505050905090810190601f1680156106955780820380516001836020036101000a031916815260200191505b509350505050604051809103906000f0801580156106b7573d6000803e3d6000fd5b50915081816000019073ffffffffffffffffffffffffffffffffffffffff16908173ffffffffffffffffffffffffffffffffffffffff1681525050848160200181905250600081604001818152505060048290806001815401808255809150509060018203906000526020600020016000909192909190916101000a81548173ffffffffffffffffffffffffffffffffffffffff021916908373ffffffffffffffffffffffffffffffffffffffff16021790555050816003866040518082805190602001908083835b6020831015156107a55780518252602082019150602081019050602083039250610780565b6001836020036101000a038019825116818451168082178552505050505050905001915050908152602001604051809103902060006101000a81548173ffffffffffffffffffffffffffffffffffffffff021916908373ffffffffffffffffffffffffffffffffffffffff16021790555080600160008473ffffffffffffffffffffffffffffffffffffffff1673ffffffffffffffffffffffffffffffffffffffff16815260200190815260200160002060008201518160000160006101000a81548173ffffffffffffffffffffffffffffffffffffffff021916908373ffffffffffffffffffffffffffffffffffffffff16021790555060208201518160010190805190602001906108b992919061190e565b506040820151816002015560608201518160030190805190602001906108e092919061198e565b5060808201518160040190805190602001906108fd929190611a18565b509050507fa04c3d8604756b9c9669aa604cb70d290875b300362195438ddf63836e906ae284878488604051808573ffffffffffffffffffffffffffffffffffffffff1673ffffffffffffffffffffffffffffffffffffffff168152602001806020018473ffffffffffffffffffffffffffffffffffffffff1673ffffffffffffffffffffffffffffffffffffffff16815260200180602001838103835286818151815260200191508051906020019080838360005b838110156109ce5780820151818401526020810190506109b3565b50505050905090810190601f1680156109fb5780820380516001836020036101000a031916815260200191505b50838103825284818151815260200191508051906020019080838360005b83811015610a34578082015181840152602081019050610a19565b50505050905090810190601f168015610a615780820380516001836020036101000a031916815260200191505b50965050505050505060405180910390a1505050505050565b6040805190810160405280600581526020017f6368696e6100000000000000000000000000000000000000000000000000000081525060079080519060200190610ac5929190611a65565b50600360076040518082805460018160011615610100020316600290048015610b255780601f10610b03576101008083540402835291820191610b25565b820191906000526020600020905b815481529060010190602001808311610b11575b5050915050908152602001604051809103902060009054906101000a900473ffffffffffffffffffffffffffffffffffffffff16600860006101000a81548173ffffffffffffffffffffffffffffffffffffffff021916908373ffffffffffffffffffffffffffffffffffffffff1602179055507ff42d6462d3e3227e2475bdc64521186bcb64be0dab77719c00d73e506904d22d600860009054906101000a900473ffffffffffffffffffffffffffffffffffffffff166007604051808373ffffffffffffffffffffffffffffffffffffffff1673ffffffffffffffffffffffffffffffffffffffff16815260200180602001828103825283818154600181600116156101000203166002900481526020019150805460018160011615610100020316600290048015610c9a5780601f10610c6f57610100808354040283529160200191610c9a565b820191906000526020600020905b815481529060010190602001808311610c7d57829003601f168201915b5050935050505060405180910390a1565b6000809054906101000a900473ffffffffffffffffffffffffffffffffffffffff1673ffffffffffffffffffffffffffffffffffffffff163373ffffffffffffffffffffffffffffffffffffffff16141515610d0657600080fd5b6000809054906101000a900473ffffffffffffffffffffffffffffffffffffffff1673ffffffffffffffffffffffffffffffffffffffff167ff8df31144d9c2f0f6b59d69b8b98abd5459d07f2742c4df920b25aae33c6482060405160405180910390a260008060006101000a81548173ffffffffffffffffffffffffffffffffffffffff021916908373ffffffffffffffffffffffffffffffffffffffff160217905550565b6000809054906101000a900473ffffffffffffffffffffffffffffffffffffffff1681565b610dda611ae5565b60408051908101604052808373ffffffffffffffffffffffffffffffffffffffff168152602001348152509050600260003373ffffffffffffffffffffffffffffffffffffffff1673ffffffffffffffffffffffffffffffffffffffff168152602001908152602001600020819080600181540180825580915050906001820390600052602060002090600202016000909192909190915060008201518160000160006101000a81548173ffffffffffffffffffffffffffffffffffffffff021916908373ffffffffffffffffffffffffffffffffffffffff160217905550602082015181600101555050507f6c88197a2b84768252871f5e05f0253df350019b5a88f8a18e34f5da66e019f28233343073ffffffffffffffffffffffffffffffffffffffff1631604051808573ffffffffffffffffffffffffffffffffffffffff1673ffffffffffffffffffffffffffffffffffffffff1681526020018473ffffffffffffffffffffffffffffffffffffffff1673ffffffffffffffffffffffffffffffffffffffff16815260200183815260200182815260200194505050505060405180910390a15050565b60008060009054906101000a900473ffffffffffffffffffffffffffffffffffffffff1673ffffffffffffffffffffffffffffffffffffffff163373ffffffffffffffffffffffffffffffffffffffff16141515610fe557600080fd5b600090505b60026000600860009054906101000a900473ffffffffffffffffffffffffffffffffffffffff1673ffffffffffffffffffffffffffffffffffffffff1673ffffffffffffffffffffffffffffffffffffffff168152602001908152602001600020805490508110156114ef5760026000600860009054906101000a900473ffffffffffffffffffffffffffffffffffffffff1673ffffffffffffffffffffffffffffffffffffffff1673ffffffffffffffffffffffffffffffffffffffff168152602001908152602001600020818154811015156110c457fe5b906000526020600020906002020160000160009054906101000a900473ffffffffffffffffffffffffffffffffffffffff1673ffffffffffffffffffffffffffffffffffffffff166108fc61122e3073ffffffffffffffffffffffffffffffffffffffff163161122060016000600860009054906101000a900473ffffffffffffffffffffffffffffffffffffffff1673ffffffffffffffffffffffffffffffffffffffff1673ffffffffffffffffffffffffffffffffffffffff1681526020019081526020016000206002015460026000600860009054906101000a900473ffffffffffffffffffffffffffffffffffffffff1673ffffffffffffffffffffffffffffffffffffffff1673ffffffffffffffffffffffffffffffffffffffff1681526020019081526020016000208781548110151561120057fe5b90600052602060002090600202016001015461175390919063ffffffff16565b61176990919063ffffffff16565b9081150290604051600060405180830381858888f19350505050158015611259573d6000803e3d6000fd5b507fc457fd4faf3985d75400e18de5bd36082b5dab89e9fa4aa56ac19b1257e03f543060026000600860009054906101000a900473ffffffffffffffffffffffffffffffffffffffff1673ffffffffffffffffffffffffffffffffffffffff1673ffffffffffffffffffffffffffffffffffffffff168152602001908152602001600020838154811015156112ea57fe5b906000526020600020906002020160000160009054906101000a900473ffffffffffffffffffffffffffffffffffffffff1661143b3073ffffffffffffffffffffffffffffffffffffffff163161142d60016000600860009054906101000a900473ffffffffffffffffffffffffffffffffffffffff1673ffffffffffffffffffffffffffffffffffffffff1673ffffffffffffffffffffffffffffffffffffffff1681526020019081526020016000206002015460026000600860009054906101000a900473ffffffffffffffffffffffffffffffffffffffff1673ffffffffffffffffffffffffffffffffffffffff1673ffffffffffffffffffffffffffffffffffffffff1681526020019081526020016000208881548110151561140d57fe5b90600052602060002090600202016001015461175390919063ffffffff16565b61176990919063ffffffff16565b3073ffffffffffffffffffffffffffffffffffffffff1631604051808573ffffffffffffffffffffffffffffffffffffffff1673ffffffffffffffffffffffffffffffffffffffff1681526020018473ffffffffffffffffffffffffffffffffffffffff1673ffffffffffffffffffffffffffffffffffffffff16815260200183815260200182815260200194505050505060405180910390a16114e96001826117a190919063ffffffff16565b50610fea565b50565b6000809054906101000a900473ffffffffffffffffffffffffffffffffffffffff1673ffffffffffffffffffffffffffffffffffffffff163373ffffffffffffffffffffffffffffffffffffffff1614151561154d57600080fd5b611556816117bd565b50565b6000809054906101000a900473ffffffffffffffffffffffffffffffffffffffff1673ffffffffffffffffffffffffffffffffffffffff163373ffffffffffffffffffffffffffffffffffffffff161415156115b457600080fd5b600960009054906101000a900473ffffffffffffffffffffffffffffffffffffffff1673ffffffffffffffffffffffffffffffffffffffff166108fc61161b600a3073ffffffffffffffffffffffffffffffffffffffff163161175390919063ffffffff16565b9081150290604051600060405180830381858888f19350505050158015611646573d6000803e3d6000fd5b507fd35125ba261e6a65740fd4ea4ba6d51b85ff5512f5f201e4037dc381e3edce3730600960009054906101000a900473ffffffffffffffffffffffffffffffffffffffff166116b7600a3073ffffffffffffffffffffffffffffffffffffffff163161175390919063ffffffff16565b3073ffffffffffffffffffffffffffffffffffffffff1631604051808573ffffffffffffffffffffffffffffffffffffffff1673ffffffffffffffffffffffffffffffffffffffff1681526020018473ffffffffffffffffffffffffffffffffffffffff1673ffffffffffffffffffffffffffffffffffffffff16815260200183815260200182815260200194505050505060405180910390a1565b6000818381151561176057fe5b04905092915050565b60008083141561177c576000905061179b565b818302905081838281151561178d57fe5b0414151561179757fe5b8090505b92915050565b600081830190508281101515156117b457fe5b80905092915050565b600073ffffffffffffffffffffffffffffffffffffffff168173ffffffffffffffffffffffffffffffffffffffff16141515156117f957600080fd5b8073ffffffffffffffffffffffffffffffffffffffff166000809054906101000a900473ffffffffffffffffffffffffffffffffffffffff1673ffffffffffffffffffffffffffffffffffffffff167f8be0079c531659141344cd1fd0a4f28419497f9722a3daafe3b4186f6b6457e060405160405180910390a3806000806101000a81548173ffffffffffffffffffffffffffffffffffffffff021916908373ffffffffffffffffffffffffffffffffffffffff16021790555050565b60a060405190810160405280600073ffffffffffffffffffffffffffffffffffffffff168152602001606081526020016000815260200160608152602001606081525090565b60405161064a8062001b7e83390190565b828054600181600116156101000203166002900490600052602060002090601f016020900481019282601f1061194f57805160ff191683800117855561197d565b8280016001018555821561197d579182015b8281111561197c578251825591602001919060010190611961565b5b50905061198a9190611b15565b5090565b828054828255906000526020600020908101928215611a07579160200282015b82811115611a065782518260006101000a81548173ffffffffffffffffffffffffffffffffffffffff021916908373ffffffffffffffffffffffffffffffffffffffff160217905550916020019190600101906119ae565b5b509050611a149190611b3a565b5090565b828054828255906000526020600020908101928215611a54579160200282015b82811115611a53578251825591602001919060010190611a38565b5b509050611a619190611b15565b5090565b828054600181600116156101000203166002900490600052602060002090601f016020900481019282601f10611aa657805160ff1916838001178555611ad4565b82800160010185558215611ad4579182015b82811115611ad3578251825591602001919060010190611ab8565b5b509050611ae19190611b15565b5090565b6040805190810160405280600073ffffffffffffffffffffffffffffffffffffffff168152602001600081525090565b611b3791905b80821115611b33576000816000905550600101611b1b565b5090565b90565b611b7a91905b80821115611b7657600081816101000a81549073ffffffffffffffffffffffffffffffffffffffff021916905550600101611b40565b5090565b905600608060405234801561001057600080fd5b5060405161064a38038061064a8339810180604052810190808051820192919060200180519060200190929190505050336000806101000a81548173ffffffffffffffffffffffffffffffffffffffff021916908373ffffffffffffffffffffffffffffffffffffffff160217905550806000806101000a81548173ffffffffffffffffffffffffffffffffffffffff021916908373ffffffffffffffffffffffffffffffffffffffff16021790555081600190805190602001906100d69291906100de565b505050610183565b828054600181600116156101000203166002900490600052602060002090601f016020900481019282601f1061011f57805160ff191683800117855561014d565b8280016001018555821561014d579182015b8281111561014c578251825591602001919060010190610131565b5b50905061015a919061015e565b5090565b61018091905b8082111561017c576000816000905550600101610164565b5090565b90565b6104b8806101926000396000f300608060405260043610610062576000357c0100000000000000000000000000000000000000000000000000000000900463ffffffff168063715018a61461006c5780638da5cb5b14610083578063f2fde38b146100da578063f90f45601461011d575b61006a610127565b005b34801561007857600080fd5b50610081610204565b005b34801561008f57600080fd5b50610098610306565b604051808273ffffffffffffffffffffffffffffffffffffffff1673ffffffffffffffffffffffffffffffffffffffff16815260200191505060405180910390f35b3480156100e657600080fd5b5061011b600480360381019080803573ffffffffffffffffffffffffffffffffffffffff16906020019092919050505061032b565b005b610125610127565b005b60008060009054906101000a900473ffffffffffffffffffffffffffffffffffffffff1690508073ffffffffffffffffffffffffffffffffffffffff1663b1275f9a34336040518363ffffffff167c0100000000000000000000000000000000000000000000000000000000028152600401808273ffffffffffffffffffffffffffffffffffffffff1673ffffffffffffffffffffffffffffffffffffffff1681526020019150506000604051808303818588803b1580156101e857600080fd5b505af11580156101fc573d6000803e3d6000fd5b505050505050565b6000809054906101000a900473ffffffffffffffffffffffffffffffffffffffff1673ffffffffffffffffffffffffffffffffffffffff163373ffffffffffffffffffffffffffffffffffffffff1614151561025f57600080fd5b6000809054906101000a900473ffffffffffffffffffffffffffffffffffffffff1673ffffffffffffffffffffffffffffffffffffffff167ff8df31144d9c2f0f6b59d69b8b98abd5459d07f2742c4df920b25aae33c6482060405160405180910390a260008060006101000a81548173ffffffffffffffffffffffffffffffffffffffff021916908373ffffffffffffffffffffffffffffffffffffffff160217905550565b6000809054906101000a900473ffffffffffffffffffffffffffffffffffffffff1681565b6000809054906101000a900473ffffffffffffffffffffffffffffffffffffffff1673ffffffffffffffffffffffffffffffffffffffff163373ffffffffffffffffffffffffffffffffffffffff1614151561038657600080fd5b61038f81610392565b50565b600073ffffffffffffffffffffffffffffffffffffffff168173ffffffffffffffffffffffffffffffffffffffff16141515156103ce57600080fd5b8073ffffffffffffffffffffffffffffffffffffffff166000809054906101000a900473ffffffffffffffffffffffffffffffffffffffff1673ffffffffffffffffffffffffffffffffffffffff167f8be0079c531659141344cd1fd0a4f28419497f9722a3daafe3b4186f6b6457e060405160405180910390a3806000806101000a81548173ffffffffffffffffffffffffffffffffffffffff021916908373ffffffffffffffffffffffffffffffffffffffff160217905550505600a165627a7a723058208b258ab3732656362b2bf3e4b7ed838e84805b2317c831fd5fb759b11ef67a2e0029a165627a7a723058201dce630ab62ffe1bf172cc409775f7c88b890902ee1e3eccb3d5cf5cacf8fc570029",
  "source": "pragma solidity ^0.4.24;\n\nimport \"./TeamFactory.sol\";\nimport \"openzeppelin-solidity/contracts/math/SafeMath.sol\";\n\ncontract Match is TeamFactory {\n    using SafeMath for uint256;\n    string team1;\n    string team2;\n    string winner;\n    address winnerAddress;\n    address houseAddress;\n\n\n    event PlayerAdded(address playerAddress, address teamAddress, uint playerBet, uint contractBalance);\n    event WinnerReceived(address winnerAddress, string winnerTeamName);\n    event HousePaid(address from, address to, uint amount, uint contractBalance);\n    event PlayerPaid(address from, address to, uint amount, uint contractBalance);\n    // event MatchClosed();\n\n    constructor(string _team1Name, string _team2Name, address _owner) public {\n        owner = _owner;\n        houseAddress = _owner;\n        team1 = _team1Name;\n        team2 = _team2Name;\n    }\n\n    function addPlayer(address _playerAddress) public payable {\n        Player memory newPlayer = Player(_playerAddress, msg.value);\n        players[msg.sender].push(newPlayer);\n        emit PlayerAdded(_playerAddress, msg.sender, msg.value, address(this).balance);\n    }\n\n    function getMatchResult() public {\n        //will get winner from oraclize\n        winner = \"china\";\n        winnerAddress = teamMappings[winner];\n        emit WinnerReceived(winnerAddress, winner);\n    }\n\n    function payoutHouse() public onlyOwner {\n        //sends house 10% cut\n        houseAddress.transfer((address(this).balance).div(10)); \n        emit HousePaid(address(this), houseAddress, (address(this).balance).div(10), address(this).balance);\n    }\n\n    function payoutPlayers() public onlyOwner {\n        for (uint i = 0; i < players[winnerAddress].length; i.add(1)) {\n            players[winnerAddress][i].playerAddress.transfer(\n                players[winnerAddress][i].playerBet.div(teams[winnerAddress].teamBalance).mul(address(this).balance)\n            );\n            emit PlayerPaid(\n                address(this), \n                players[winnerAddress][i].playerAddress, \n                players[winnerAddress][i].playerBet.div(teams[winnerAddress].teamBalance).mul(address(this).balance), \n                address(this).balance\n            );\n        }\n    }\n}\n\n\n\n\n",
  "sourcePath": "/Users/jarenlynch/Ethereum/SportApp/contracts/Match.sol",
  "compiler": {
    "name": "solc",
    "version": "0.4.24+commit.e67f0147.Emscripten.clang"
  },
  "schemaVersion": "2.0.1",
  "updatedAt": "2018-08-15T01:19:27.644Z"
}