{
  "contractName": "Match",
  "abi": [
    {
      "constant": false,
      "inputs": [
        {
          "name": "_team1Name",
          "type": "string"
        },
        {
          "name": "_team2Name",
          "type": "string"
        }
      ],
      "name": "createTeam",
      "outputs": [],
      "payable": false,
      "stateMutability": "nonpayable",
      "type": "function"
    },
    {
      "constant": false,
      "inputs": [],
      "name": "renounceOwnership",
      "outputs": [],
      "payable": false,
      "stateMutability": "nonpayable",
      "type": "function"
    },
    {
      "constant": true,
      "inputs": [],
      "name": "owner",
      "outputs": [
        {
          "name": "",
          "type": "address"
        }
      ],
      "payable": false,
      "stateMutability": "view",
      "type": "function"
    },
    {
      "constant": true,
      "inputs": [],
      "name": "winner",
      "outputs": [
        {
          "name": "",
          "type": "string"
        }
      ],
      "payable": false,
      "stateMutability": "view",
      "type": "function"
    },
    {
      "constant": false,
      "inputs": [
        {
          "name": "_newOwner",
          "type": "address"
        }
      ],
      "name": "transferOwnership",
      "outputs": [],
      "payable": false,
      "stateMutability": "nonpayable",
      "type": "function"
    },
    {
      "inputs": [
        {
          "name": "_team1Name",
          "type": "string"
        },
        {
          "name": "_team2Name",
          "type": "string"
        },
        {
          "name": "_owner",
          "type": "address"
        }
      ],
      "payable": false,
      "stateMutability": "nonpayable",
      "type": "constructor"
    },
    {
      "anonymous": false,
      "inputs": [
        {
          "indexed": false,
          "name": "team1Address",
          "type": "address"
        },
        {
          "indexed": false,
          "name": "team1Name",
          "type": "string"
        },
        {
          "indexed": false,
          "name": "team2Address",
          "type": "address"
        },
        {
          "indexed": false,
          "name": "team2Name",
          "type": "string"
        }
      ],
      "name": "TeamCreated",
      "type": "event"
    },
    {
      "anonymous": false,
      "inputs": [
        {
          "indexed": true,
          "name": "previousOwner",
          "type": "address"
        }
      ],
      "name": "OwnershipRenounced",
      "type": "event"
    },
    {
      "anonymous": false,
      "inputs": [
        {
          "indexed": true,
          "name": "previousOwner",
          "type": "address"
        },
        {
          "indexed": true,
          "name": "newOwner",
          "type": "address"
        }
      ],
      "name": "OwnershipTransferred",
      "type": "event"
    },
    {
      "constant": false,
      "inputs": [],
      "name": "getMatchResult",
      "outputs": [],
      "payable": false,
      "stateMutability": "nonpayable",
      "type": "function"
    }
  ],
  "bytecode": "0x608060405234801561001057600080fd5b50604051611b79380380611b79833981018060405281019080805182019291906020018051820192919060200180519060200190929190505050336000806101000a81548173ffffffffffffffffffffffffffffffffffffffff021916908373ffffffffffffffffffffffffffffffffffffffff160217905550806000806101000a81548173ffffffffffffffffffffffffffffffffffffffff021916908373ffffffffffffffffffffffffffffffffffffffff16021790555082600290805190602001906100e0929190610100565b5081600390805190602001906100f7929190610100565b505050506101a5565b828054600181600116156101000203166002900490600052602060002090601f016020900481019282601f1061014157805160ff191683800117855561016f565b8280016001018555821561016f579182015b8281111561016e578251825591602001919060010190610153565b5b50905061017c9190610180565b5090565b6101a291905b8082111561019e576000816000905550600101610186565b5090565b90565b6119c5806101b46000396000f300608060405260043610610078576000357c0100000000000000000000000000000000000000000000000000000000900463ffffffff16806301a682c11461007d5780634a6863811461012c578063715018a6146101435780638da5cb5b1461015a578063dfbf53ae146101b1578063f2fde38b14610241575b600080fd5b34801561008957600080fd5b5061012a600480360381019080803590602001908201803590602001908080601f0160208091040260200160405190810160405280939291908181526020018383808284378201915050505050509192919290803590602001908201803590602001908080601f0160208091040260200160405190810160405280939291908181526020018383808284378201915050505050509192919290505050610284565b005b34801561013857600080fd5b506101416105ef565b005b34801561014f57600080fd5b50610158610698565b005b34801561016657600080fd5b5061016f61079a565b604051808273ffffffffffffffffffffffffffffffffffffffff1673ffffffffffffffffffffffffffffffffffffffff16815260200191505060405180910390f35b3480156101bd57600080fd5b506101c66107bf565b6040518080602001828103825283818151815260200191508051906020019080838360005b838110156102065780820151818401526020810190506101eb565b50505050905090810190601f1680156102335780820380516001836020036101000a031916815260200191505b509250505060405180910390f35b34801561024d57600080fd5b50610282600480360381019080803573ffffffffffffffffffffffffffffffffffffffff16906020019092919050505061085d565b005b6000806000809054906101000a900473ffffffffffffffffffffffffffffffffffffffff1673ffffffffffffffffffffffffffffffffffffffff163373ffffffffffffffffffffffffffffffffffffffff161415156102e257600080fd5b30846102ec6109be565b808373ffffffffffffffffffffffffffffffffffffffff1673ffffffffffffffffffffffffffffffffffffffff16815260200180602001828103825283818151815260200191508051906020019080838360005b8381101561035b578082015181840152602081019050610340565b50505050905090810190601f1680156103885780820380516001836020036101000a031916815260200191505b509350505050604051809103906000f0801580156103aa573d6000803e3d6000fd5b50915030836103b76109be565b808373ffffffffffffffffffffffffffffffffffffffff1673ffffffffffffffffffffffffffffffffffffffff16815260200180602001828103825283818151815260200191508051906020019080838360005b8381101561042657808201518184015260208101905061040b565b50505050905090810190601f1680156104535780820380516001836020036101000a031916815260200191505b509350505050604051809103906000f080158015610475573d6000803e3d6000fd5b5090507fa04c3d8604756b9c9669aa604cb70d290875b300362195438ddf63836e906ae282858386604051808573ffffffffffffffffffffffffffffffffffffffff1673ffffffffffffffffffffffffffffffffffffffff168152602001806020018473ffffffffffffffffffffffffffffffffffffffff1673ffffffffffffffffffffffffffffffffffffffff16815260200180602001838103835286818151815260200191508051906020019080838360005b8381101561054557808201518184015260208101905061052a565b50505050905090810190601f1680156105725780820380516001836020036101000a031916815260200191505b50838103825284818151815260200191508051906020019080838360005b838110156105ab578082015181840152602081019050610590565b50505050905090810190601f1680156105d85780820380516001836020036101000a031916815260200191505b50965050505050505060405180910390a150505050565b6000809054906101000a900473ffffffffffffffffffffffffffffffffffffffff1673ffffffffffffffffffffffffffffffffffffffff163373ffffffffffffffffffffffffffffffffffffffff1614151561064a57600080fd5b6040805190810160405280600781526020017f63726f6174696100000000000000000000000000000000000000000000000000815250600190805190602001906106959291906109ce565b50565b6000809054906101000a900473ffffffffffffffffffffffffffffffffffffffff1673ffffffffffffffffffffffffffffffffffffffff163373ffffffffffffffffffffffffffffffffffffffff161415156106f357600080fd5b6000809054906101000a900473ffffffffffffffffffffffffffffffffffffffff1673ffffffffffffffffffffffffffffffffffffffff167ff8df31144d9c2f0f6b59d69b8b98abd5459d07f2742c4df920b25aae33c6482060405160405180910390a260008060006101000a81548173ffffffffffffffffffffffffffffffffffffffff021916908373ffffffffffffffffffffffffffffffffffffffff160217905550565b6000809054906101000a900473ffffffffffffffffffffffffffffffffffffffff1681565b60018054600181600116156101000203166002900480601f0160208091040260200160405190810160405280929190818152602001828054600181600116156101000203166002900480156108555780601f1061082a57610100808354040283529160200191610855565b820191906000526020600020905b81548152906001019060200180831161083857829003601f168201915b505050505081565b6000809054906101000a900473ffffffffffffffffffffffffffffffffffffffff1673ffffffffffffffffffffffffffffffffffffffff163373ffffffffffffffffffffffffffffffffffffffff161415156108b857600080fd5b6108c1816108c4565b50565b600073ffffffffffffffffffffffffffffffffffffffff168173ffffffffffffffffffffffffffffffffffffffff161415151561090057600080fd5b8073ffffffffffffffffffffffffffffffffffffffff166000809054906101000a900473ffffffffffffffffffffffffffffffffffffffff1673ffffffffffffffffffffffffffffffffffffffff167f8be0079c531659141344cd1fd0a4f28419497f9722a3daafe3b4186f6b6457e060405160405180910390a3806000806101000a81548173ffffffffffffffffffffffffffffffffffffffff021916908373ffffffffffffffffffffffffffffffffffffffff16021790555050565b604051610f2680610a7483390190565b828054600181600116156101000203166002900490600052602060002090601f016020900481019282601f10610a0f57805160ff1916838001178555610a3d565b82800160010185558215610a3d579182015b82811115610a3c578251825591602001919060010190610a21565b5b509050610a4a9190610a4e565b5090565b610a7091905b80821115610a6c576000816000905550600101610a54565b5090565b9056006080604052600060025534801561001557600080fd5b50604051610f26380380610f268339810180604052810190808051906020019092919080518201929190505050336000806101000a81548173ffffffffffffffffffffffffffffffffffffffff021916908373ffffffffffffffffffffffffffffffffffffffff160217905550816000806101000a81548173ffffffffffffffffffffffffffffffffffffffff021916908373ffffffffffffffffffffffffffffffffffffffff16021790555080600390805190602001906100d89291906100e0565b505050610185565b828054600181600116156101000203166002900490600052602060002090601f016020900481019282601f1061012157805160ff191683800117855561014f565b8280016001018555821561014f579182015b8281111561014e578251825591602001919060010190610133565b5b50905061015c9190610160565b5090565b61018291905b8082111561017e576000816000905550600101610166565b5090565b90565b610d92806101946000396000f300608060405260043610610099576000357c0100000000000000000000000000000000000000000000000000000000900463ffffffff1680631624cb3f146100a35780636250f58e146100e6578063715018a6146101295780638da5cb5b14610140578063c448a6ac14610197578063f2fde38b146101ae578063f71d96cb146101f1578063f90f456014610265578063fdadb5fb1461026f575b6100a161029a565b005b3480156100af57600080fd5b506100e4600480360381019080803573ffffffffffffffffffffffffffffffffffffffff1690602001909291905050506102bc565b005b3480156100f257600080fd5b50610127600480360381019080803573ffffffffffffffffffffffffffffffffffffffff169060200190929190505050610475565b005b34801561013557600080fd5b5061013e61061d565b005b34801561014c57600080fd5b5061015561071f565b604051808273ffffffffffffffffffffffffffffffffffffffff1673ffffffffffffffffffffffffffffffffffffffff16815260200191505060405180910390f35b3480156101a357600080fd5b506101ac610744565b005b3480156101ba57600080fd5b506101ef600480360381019080803573ffffffffffffffffffffffffffffffffffffffff169060200190929190505050610998565b005b3480156101fd57600080fd5b5061021c600480360381019080803590602001909291905050506109ff565b604051808373ffffffffffffffffffffffffffffffffffffffff1673ffffffffffffffffffffffffffffffffffffffff1681526020018281526020019250505060405180910390f35b61026d61029a565b005b34801561027b57600080fd5b50610284610a52565b6040518082815260200191505060405180910390f35b6102a43334610a58565b6102b934600254610bd290919063ffffffff16565b50565b6000809054906101000a900473ffffffffffffffffffffffffffffffffffffffff1673ffffffffffffffffffffffffffffffffffffffff163373ffffffffffffffffffffffffffffffffffffffff1614151561031757600080fd5b8073ffffffffffffffffffffffffffffffffffffffff166108fc61035c600a3073ffffffffffffffffffffffffffffffffffffffff1631610bee90919063ffffffff16565b9081150290604051600060405180830381858888f19350505050158015610387573d6000803e3d6000fd5b507f31c466f9138341499cfac19407098a0c425d5ecd0174d6a0e1fd01d052b1fddf306000809054906101000a900473ffffffffffffffffffffffffffffffffffffffff166103f7600a3073ffffffffffffffffffffffffffffffffffffffff1631610bee90919063ffffffff16565b604051808473ffffffffffffffffffffffffffffffffffffffff1673ffffffffffffffffffffffffffffffffffffffff1681526020018373ffffffffffffffffffffffffffffffffffffffff1673ffffffffffffffffffffffffffffffffffffffff168152602001828152602001935050505060405180910390a150565b6000809054906101000a900473ffffffffffffffffffffffffffffffffffffffff1673ffffffffffffffffffffffffffffffffffffffff163373ffffffffffffffffffffffffffffffffffffffff161415156104d057600080fd5b3073ffffffffffffffffffffffffffffffffffffffff168173ffffffffffffffffffffffffffffffffffffffff16141515610564578073ffffffffffffffffffffffffffffffffffffffff166108fc3073ffffffffffffffffffffffffffffffffffffffff16319081150290604051600060405180830381858888f19350505050158015610562573d6000803e3d6000fd5b505b7fbc28ed847b32dd881025682d237dd888f3bfa0a658d5a78cc31a233d288c686a30823073ffffffffffffffffffffffffffffffffffffffff1631604051808473ffffffffffffffffffffffffffffffffffffffff1673ffffffffffffffffffffffffffffffffffffffff1681526020018373ffffffffffffffffffffffffffffffffffffffff1673ffffffffffffffffffffffffffffffffffffffff168152602001828152602001935050505060405180910390a150565b6000809054906101000a900473ffffffffffffffffffffffffffffffffffffffff1673ffffffffffffffffffffffffffffffffffffffff163373ffffffffffffffffffffffffffffffffffffffff1614151561067857600080fd5b6000809054906101000a900473ffffffffffffffffffffffffffffffffffffffff1673ffffffffffffffffffffffffffffffffffffffff167ff8df31144d9c2f0f6b59d69b8b98abd5459d07f2742c4df920b25aae33c6482060405160405180910390a260008060006101000a81548173ffffffffffffffffffffffffffffffffffffffff021916908373ffffffffffffffffffffffffffffffffffffffff160217905550565b6000809054906101000a900473ffffffffffffffffffffffffffffffffffffffff1681565b6000806000809054906101000a900473ffffffffffffffffffffffffffffffffffffffff1673ffffffffffffffffffffffffffffffffffffffff163373ffffffffffffffffffffffffffffffffffffffff161415156107a257600080fd5b6108003073ffffffffffffffffffffffffffffffffffffffff16316107f26002546001858154811015156107d257fe5b906000526020600020906002020160010154610bee90919063ffffffff16565b610c0490919063ffffffff16565b9150600090505b6001805490508110156109945760018181548110151561082357fe5b906000526020600020906002020160000160009054906101000a900473ffffffffffffffffffffffffffffffffffffffff1673ffffffffffffffffffffffffffffffffffffffff166108fc839081150290604051600060405180830381858888f1935050505015801561089a573d6000803e3d6000fd5b507f8d28e9bc37f8320a85de08ff9cff9b777c90de940461ca9f936f7c0bba67073e306001838154811015156108cc57fe5b906000526020600020906002020160000160009054906101000a900473ffffffffffffffffffffffffffffffffffffffff1684604051808473ffffffffffffffffffffffffffffffffffffffff1673ffffffffffffffffffffffffffffffffffffffff1681526020018373ffffffffffffffffffffffffffffffffffffffff1673ffffffffffffffffffffffffffffffffffffffff168152602001828152602001935050505060405180910390a161098e600182610bd290919063ffffffff16565b50610807565b5050565b6000809054906101000a900473ffffffffffffffffffffffffffffffffffffffff1673ffffffffffffffffffffffffffffffffffffffff163373ffffffffffffffffffffffffffffffffffffffff161415156109f357600080fd5b6109fc81610c3c565b50565b600181815481101515610a0e57fe5b90600052602060002090600202016000915090508060000160009054906101000a900473ffffffffffffffffffffffffffffffffffffffff16908060010154905082565b60025481565b610a60610d36565b60408051908101604052808473ffffffffffffffffffffffffffffffffffffffff1681526020018381525090506001819080600181540180825580915050906001820390600052602060002090600202016000909192909190915060008201518160000160006101000a81548173ffffffffffffffffffffffffffffffffffffffff021916908373ffffffffffffffffffffffffffffffffffffffff160217905550602082015181600101555050507f6c88197a2b84768252871f5e05f0253df350019b5a88f8a18e34f5da66e019f28330843073ffffffffffffffffffffffffffffffffffffffff1631604051808573ffffffffffffffffffffffffffffffffffffffff1673ffffffffffffffffffffffffffffffffffffffff1681526020018473ffffffffffffffffffffffffffffffffffffffff1673ffffffffffffffffffffffffffffffffffffffff16815260200183815260200182815260200194505050505060405180910390a1505050565b60008183019050828110151515610be557fe5b80905092915050565b60008183811515610bfb57fe5b04905092915050565b600080831415610c175760009050610c36565b8183029050818382811515610c2857fe5b04141515610c3257fe5b8090505b92915050565b600073ffffffffffffffffffffffffffffffffffffffff168173ffffffffffffffffffffffffffffffffffffffff1614151515610c7857600080fd5b8073ffffffffffffffffffffffffffffffffffffffff166000809054906101000a900473ffffffffffffffffffffffffffffffffffffffff1673ffffffffffffffffffffffffffffffffffffffff167f8be0079c531659141344cd1fd0a4f28419497f9722a3daafe3b4186f6b6457e060405160405180910390a3806000806101000a81548173ffffffffffffffffffffffffffffffffffffffff021916908373ffffffffffffffffffffffffffffffffffffffff16021790555050565b6040805190810160405280600073ffffffffffffffffffffffffffffffffffffffff1681526020016000815250905600a165627a7a723058206bde7be7b5ffdc041a00c765d51281c9a851da7053381b43ca98e0171c5689c80029a165627a7a72305820d8cbf5e05c9f7d7a0b4406779ae11aeba89f334fbafdb65bb982af3982c83ba80029",
  "source": "pragma solidity ^0.4.24;\n\nimport \"./TeamFactory.sol\";\nimport \"openzeppelin-solidity/contracts/math/SafeMath.sol\";\n\ncontract Match is TeamFactory {\n    string public winner;\n    string team1;\n    string team2;\n\n    constructor(string _team1Name, string _team2Name, address _owner) public {\n        owner = _owner;\n        team1 = _team1Name;\n        team2 = _team2Name;\n    }\n\n    function getMatchResult() public onlyOwner {\n        //will get winner from oraclize\n        winner = \"croatia\";\n        // sendMatchResult(teams[winner]);\n    }\n\n    // function sendMatchResult(address _address) public onlyOwner {\n    //     for (uint i = 0; i < teamAddresses.length; i++) {\n    //         Team(teamAddresses[i]).payoutHouse(owner);\n    //         Team(teamAddresses[i]).payoutTeam(winnerAddress);\n    //     }\n    //     Team(winnerAddress).payoutPlayers();\n    // }\n}\n\n\n\n\n",
  "sourcePath": "/Users/jarenlynch/Ethereum/SportApp/contracts/Match.sol",
  "compiler": {
    "name": "solc",
    "version": "0.4.24+commit.e67f0147.Emscripten.clang"
  },
  "schemaVersion": "2.0.1",
  "updatedAt": "2018-07-31T16:00:13.291Z"
}