{
  "contractName": "Match",
  "abi": [
    {
      "constant": false,
      "inputs": [
        {
          "name": "_team1",
          "type": "string"
        },
        {
          "name": "_team2",
          "type": "string"
        }
      ],
      "name": "createTeam",
      "outputs": [],
      "payable": false,
      "stateMutability": "nonpayable",
      "type": "function"
    },
    {
      "constant": false,
      "inputs": [],
      "name": "renounceOwnership",
      "outputs": [],
      "payable": false,
      "stateMutability": "nonpayable",
      "type": "function"
    },
    {
      "constant": true,
      "inputs": [],
      "name": "owner",
      "outputs": [
        {
          "name": "",
          "type": "address"
        }
      ],
      "payable": false,
      "stateMutability": "view",
      "type": "function"
    },
    {
      "constant": false,
      "inputs": [
        {
          "name": "_newOwner",
          "type": "address"
        }
      ],
      "name": "transferOwnership",
      "outputs": [],
      "payable": false,
      "stateMutability": "nonpayable",
      "type": "function"
    },
    {
      "inputs": [
        {
          "name": "_team1Name",
          "type": "string"
        },
        {
          "name": "_team2Name",
          "type": "string"
        },
        {
          "name": "_owner",
          "type": "address"
        }
      ],
      "payable": false,
      "stateMutability": "nonpayable",
      "type": "constructor"
    },
    {
      "anonymous": false,
      "inputs": [
        {
          "indexed": false,
          "name": "team1Address",
          "type": "address"
        },
        {
          "indexed": false,
          "name": "team1Name",
          "type": "string"
        },
        {
          "indexed": false,
          "name": "team2Address",
          "type": "address"
        },
        {
          "indexed": false,
          "name": "team2Name",
          "type": "string"
        }
      ],
      "name": "TeamCreated",
      "type": "event"
    },
    {
      "anonymous": false,
      "inputs": [
        {
          "indexed": true,
          "name": "previousOwner",
          "type": "address"
        }
      ],
      "name": "OwnershipRenounced",
      "type": "event"
    },
    {
      "anonymous": false,
      "inputs": [
        {
          "indexed": true,
          "name": "previousOwner",
          "type": "address"
        },
        {
          "indexed": true,
          "name": "newOwner",
          "type": "address"
        }
      ],
      "name": "OwnershipTransferred",
      "type": "event"
    },
    {
      "constant": false,
      "inputs": [
        {
          "name": "_winner",
          "type": "string"
        }
      ],
      "name": "sendMatchResult",
      "outputs": [],
      "payable": false,
      "stateMutability": "nonpayable",
      "type": "function"
    },
    {
      "constant": false,
      "inputs": [],
      "name": "payOutHouse",
      "outputs": [],
      "payable": false,
      "stateMutability": "nonpayable",
      "type": "function"
    },
    {
      "constant": false,
      "inputs": [],
      "name": "payOutPlayers",
      "outputs": [],
      "payable": false,
      "stateMutability": "nonpayable",
      "type": "function"
    }
  ],
  "bytecode": "0x608060405234801561001057600080fd5b5060405162001edf38038062001edf833981018060405281019080805182019291906020018051820192919060200180519060200190929190505050336000806101000a81548173ffffffffffffffffffffffffffffffffffffffff021916908373ffffffffffffffffffffffffffffffffffffffff160217905550806000806101000a81548173ffffffffffffffffffffffffffffffffffffffff021916908373ffffffffffffffffffffffffffffffffffffffff16021790555082600390805190602001906100e2929190610102565b5081600490805190602001906100f9929190610102565b505050506101a7565b828054600181600116156101000203166002900490600052602060002090601f016020900481019282601f1061014357805160ff1916838001178555610171565b82800160010185558215610171579182015b82811115610170578251825591602001919060010190610155565b5b50905061017e9190610182565b5090565b6101a491905b808211156101a0576000816000905550600101610188565b5090565b90565b611d2880620001b76000396000f300608060405260043610610083576000357c0100000000000000000000000000000000000000000000000000000000900463ffffffff16806301a682c11461008857806315cd2ef814610137578063321b8d5e146101a0578063402d5a65146101b7578063715018a6146101ce5780638da5cb5b146101e5578063f2fde38b1461023c575b600080fd5b34801561009457600080fd5b50610135600480360381019080803590602001908201803590602001908080601f0160208091040260200160405190810160405280939291908181526020018383808284378201915050505050509192919290803590602001908201803590602001908080601f016020809104026020016040519081016040528093929190818152602001838380828437820191505050505050919291929050505061027f565b005b34801561014357600080fd5b5061019e600480360381019080803590602001908201803590602001908080601f016020809104026020016040519081016040528093929190818152602001838380828437820191505050505050919291929050505061080a565b005b3480156101ac57600080fd5b506101b5610a01565b005b3480156101c357600080fd5b506101cc610b54565b005b3480156101da57600080fd5b506101e3610c4f565b005b3480156101f157600080fd5b506101fa610d51565b604051808273ffffffffffffffffffffffffffffffffffffffff1673ffffffffffffffffffffffffffffffffffffffff16815260200191505060405180910390f35b34801561024857600080fd5b5061027d600480360381019080803573ffffffffffffffffffffffffffffffffffffffff169060200190929190505050610d76565b005b6000806000809054906101000a900473ffffffffffffffffffffffffffffffffffffffff1673ffffffffffffffffffffffffffffffffffffffff163373ffffffffffffffffffffffffffffffffffffffff161415156102dd57600080fd5b30846102e7610ed7565b808373ffffffffffffffffffffffffffffffffffffffff1673ffffffffffffffffffffffffffffffffffffffff16815260200180602001828103825283818151815260200191508051906020019080838360005b8381101561035657808201518184015260208101905061033b565b50505050905090810190601f1680156103835780820380516001836020036101000a031916815260200191505b509350505050604051809103906000f0801580156103a5573d6000803e3d6000fd5b50915060028290806001815401808255809150509060018203906000526020600020016000909192909190916101000a81548173ffffffffffffffffffffffffffffffffffffffff021916908373ffffffffffffffffffffffffffffffffffffffff16021790555050816001856040518082805190602001908083835b6020831015156104475780518252602082019150602081019050602083039250610422565b6001836020036101000a038019825116818451168082178552505050505050905001915050908152602001604051809103902060006101000a81548173ffffffffffffffffffffffffffffffffffffffff021916908373ffffffffffffffffffffffffffffffffffffffff16021790555030836104c2610ed7565b808373ffffffffffffffffffffffffffffffffffffffff1673ffffffffffffffffffffffffffffffffffffffff16815260200180602001828103825283818151815260200191508051906020019080838360005b83811015610531578082015181840152602081019050610516565b50505050905090810190601f16801561055e5780820380516001836020036101000a031916815260200191505b509350505050604051809103906000f080158015610580573d6000803e3d6000fd5b50905060028190806001815401808255809150509060018203906000526020600020016000909192909190916101000a81548173ffffffffffffffffffffffffffffffffffffffff021916908373ffffffffffffffffffffffffffffffffffffffff16021790555050806001846040518082805190602001908083835b60208310151561062257805182526020820191506020810190506020830392506105fd565b6001836020036101000a038019825116818451168082178552505050505050905001915050908152602001604051809103902060006101000a81548173ffffffffffffffffffffffffffffffffffffffff021916908373ffffffffffffffffffffffffffffffffffffffff1602179055507fa04c3d8604756b9c9669aa604cb70d290875b300362195438ddf63836e906ae282858386604051808573ffffffffffffffffffffffffffffffffffffffff1673ffffffffffffffffffffffffffffffffffffffff168152602001806020018473ffffffffffffffffffffffffffffffffffffffff1673ffffffffffffffffffffffffffffffffffffffff16815260200180602001838103835286818151815260200191508051906020019080838360005b83811015610760578082015181840152602081019050610745565b50505050905090810190601f16801561078d5780820380516001836020036101000a031916815260200191505b50838103825284818151815260200191508051906020019080838360005b838110156107c65780820151818401526020810190506107ab565b50505050905090810190601f1680156107f35780820380516001836020036101000a031916815260200191505b50965050505050505060405180910390a150505050565b60008060009054906101000a900473ffffffffffffffffffffffffffffffffffffffff1673ffffffffffffffffffffffffffffffffffffffff163373ffffffffffffffffffffffffffffffffffffffff1614151561086757600080fd5b600090505b6002805490508110156109fd5760028181548110151561088857fe5b9060005260206000200160009054906101000a900473ffffffffffffffffffffffffffffffffffffffff1673ffffffffffffffffffffffffffffffffffffffff16636250f58e6001846040518082805190602001908083835b60208310151561090657805182526020820191506020810190506020830392506108e1565b6001836020036101000a038019825116818451168082178552505050505050905001915050908152602001604051809103902060009054906101000a900473ffffffffffffffffffffffffffffffffffffffff166040518263ffffffff167c0100000000000000000000000000000000000000000000000000000000028152600401808273ffffffffffffffffffffffffffffffffffffffff1673ffffffffffffffffffffffffffffffffffffffff168152602001915050600060405180830381600087803b1580156109d857600080fd5b505af11580156109ec573d6000803e3d6000fd5b50505050808060010191505061086c565b5050565b6000809054906101000a900473ffffffffffffffffffffffffffffffffffffffff1673ffffffffffffffffffffffffffffffffffffffff163373ffffffffffffffffffffffffffffffffffffffff16141515610a5c57600080fd5b600560009054906101000a900473ffffffffffffffffffffffffffffffffffffffff1673ffffffffffffffffffffffffffffffffffffffff16631624cb3f6000809054906101000a900473ffffffffffffffffffffffffffffffffffffffff166040518263ffffffff167c0100000000000000000000000000000000000000000000000000000000028152600401808273ffffffffffffffffffffffffffffffffffffffff1673ffffffffffffffffffffffffffffffffffffffff168152602001915050600060405180830381600087803b158015610b3a57600080fd5b505af1158015610b4e573d6000803e3d6000fd5b50505050565b6000809054906101000a900473ffffffffffffffffffffffffffffffffffffffff1673ffffffffffffffffffffffffffffffffffffffff163373ffffffffffffffffffffffffffffffffffffffff16141515610baf57600080fd5b600560009054906101000a900473ffffffffffffffffffffffffffffffffffffffff1673ffffffffffffffffffffffffffffffffffffffff1663c448a6ac6040518163ffffffff167c0100000000000000000000000000000000000000000000000000000000028152600401600060405180830381600087803b158015610c3557600080fd5b505af1158015610c49573d6000803e3d6000fd5b50505050565b6000809054906101000a900473ffffffffffffffffffffffffffffffffffffffff1673ffffffffffffffffffffffffffffffffffffffff163373ffffffffffffffffffffffffffffffffffffffff16141515610caa57600080fd5b6000809054906101000a900473ffffffffffffffffffffffffffffffffffffffff1673ffffffffffffffffffffffffffffffffffffffff167ff8df31144d9c2f0f6b59d69b8b98abd5459d07f2742c4df920b25aae33c6482060405160405180910390a260008060006101000a81548173ffffffffffffffffffffffffffffffffffffffff021916908373ffffffffffffffffffffffffffffffffffffffff160217905550565b6000809054906101000a900473ffffffffffffffffffffffffffffffffffffffff1681565b6000809054906101000a900473ffffffffffffffffffffffffffffffffffffffff1673ffffffffffffffffffffffffffffffffffffffff163373ffffffffffffffffffffffffffffffffffffffff16141515610dd157600080fd5b610dda81610ddd565b50565b600073ffffffffffffffffffffffffffffffffffffffff168173ffffffffffffffffffffffffffffffffffffffff1614151515610e1957600080fd5b8073ffffffffffffffffffffffffffffffffffffffff166000809054906101000a900473ffffffffffffffffffffffffffffffffffffffff1673ffffffffffffffffffffffffffffffffffffffff167f8be0079c531659141344cd1fd0a4f28419497f9722a3daafe3b4186f6b6457e060405160405180910390a3806000806101000a81548173ffffffffffffffffffffffffffffffffffffffff021916908373ffffffffffffffffffffffffffffffffffffffff16021790555050565b604051610e1580610ee88339019056006080604052600060025534801561001557600080fd5b50604051610e15380380610e158339810180604052810190808051906020019092919080518201929190505050336000806101000a81548173ffffffffffffffffffffffffffffffffffffffff021916908373ffffffffffffffffffffffffffffffffffffffff160217905550816000806101000a81548173ffffffffffffffffffffffffffffffffffffffff021916908373ffffffffffffffffffffffffffffffffffffffff16021790555080600390805190602001906100d89291906100e0565b505050610185565b828054600181600116156101000203166002900490600052602060002090601f016020900481019282601f1061012157805160ff191683800117855561014f565b8280016001018555821561014f579182015b8281111561014e578251825591602001919060010190610133565b5b50905061015c9190610160565b5090565b61018291905b8082111561017e576000816000905550600101610166565b5090565b90565b610c81806101946000396000f300608060405260043610610099576000357c0100000000000000000000000000000000000000000000000000000000900463ffffffff1680631624cb3f146100a35780636250f58e146100e6578063715018a6146101295780638da5cb5b14610140578063c448a6ac14610197578063f2fde38b146101ae578063f71d96cb146101f1578063f90f456014610265578063fdadb5fb1461026f575b6100a161029a565b005b3480156100af57600080fd5b506100e4600480360381019080803573ffffffffffffffffffffffffffffffffffffffff1690602001909291905050506102bc565b005b3480156100f257600080fd5b50610127600480360381019080803573ffffffffffffffffffffffffffffffffffffffff16906020019092919050505061041a565b005b34801561013557600080fd5b5061013e610567565b005b34801561014c57600080fd5b50610155610669565b604051808273ffffffffffffffffffffffffffffffffffffffff1673ffffffffffffffffffffffffffffffffffffffff16815260200191505060405180910390f35b3480156101a357600080fd5b506101ac61068e565b005b3480156101ba57600080fd5b506101ef600480360381019080803573ffffffffffffffffffffffffffffffffffffffff169060200190929190505050610887565b005b3480156101fd57600080fd5b5061021c600480360381019080803590602001909291905050506108ee565b604051808373ffffffffffffffffffffffffffffffffffffffff1673ffffffffffffffffffffffffffffffffffffffff1681526020018281526020019250505060405180910390f35b61026d61029a565b005b34801561027b57600080fd5b50610284610941565b6040518082815260200191505060405180910390f35b6102a43334610947565b6102b934600254610ac190919063ffffffff16565b50565b8073ffffffffffffffffffffffffffffffffffffffff166108fc610301600a3073ffffffffffffffffffffffffffffffffffffffff1631610add90919063ffffffff16565b9081150290604051600060405180830381858888f1935050505015801561032c573d6000803e3d6000fd5b507f31c466f9138341499cfac19407098a0c425d5ecd0174d6a0e1fd01d052b1fddf306000809054906101000a900473ffffffffffffffffffffffffffffffffffffffff1661039c600a3073ffffffffffffffffffffffffffffffffffffffff1631610add90919063ffffffff16565b604051808473ffffffffffffffffffffffffffffffffffffffff1673ffffffffffffffffffffffffffffffffffffffff1681526020018373ffffffffffffffffffffffffffffffffffffffff1673ffffffffffffffffffffffffffffffffffffffff168152602001828152602001935050505060405180910390a150565b3073ffffffffffffffffffffffffffffffffffffffff168173ffffffffffffffffffffffffffffffffffffffff161415156104ae578073ffffffffffffffffffffffffffffffffffffffff166108fc3073ffffffffffffffffffffffffffffffffffffffff16319081150290604051600060405180830381858888f193505050501580156104ac573d6000803e3d6000fd5b505b7fbc28ed847b32dd881025682d237dd888f3bfa0a658d5a78cc31a233d288c686a30823073ffffffffffffffffffffffffffffffffffffffff1631604051808473ffffffffffffffffffffffffffffffffffffffff1673ffffffffffffffffffffffffffffffffffffffff1681526020018373ffffffffffffffffffffffffffffffffffffffff1673ffffffffffffffffffffffffffffffffffffffff168152602001828152602001935050505060405180910390a150565b6000809054906101000a900473ffffffffffffffffffffffffffffffffffffffff1673ffffffffffffffffffffffffffffffffffffffff163373ffffffffffffffffffffffffffffffffffffffff161415156105c257600080fd5b6000809054906101000a900473ffffffffffffffffffffffffffffffffffffffff1673ffffffffffffffffffffffffffffffffffffffff167ff8df31144d9c2f0f6b59d69b8b98abd5459d07f2742c4df920b25aae33c6482060405160405180910390a260008060006101000a81548173ffffffffffffffffffffffffffffffffffffffff021916908373ffffffffffffffffffffffffffffffffffffffff160217905550565b6000809054906101000a900473ffffffffffffffffffffffffffffffffffffffff1681565b6000806106ef3073ffffffffffffffffffffffffffffffffffffffff16316106e16002546001858154811015156106c157fe5b906000526020600020906002020160010154610add90919063ffffffff16565b610af390919063ffffffff16565b9150600090505b6001805490508110156108835760018181548110151561071257fe5b906000526020600020906002020160000160009054906101000a900473ffffffffffffffffffffffffffffffffffffffff1673ffffffffffffffffffffffffffffffffffffffff166108fc839081150290604051600060405180830381858888f19350505050158015610789573d6000803e3d6000fd5b507f8d28e9bc37f8320a85de08ff9cff9b777c90de940461ca9f936f7c0bba67073e306001838154811015156107bb57fe5b906000526020600020906002020160000160009054906101000a900473ffffffffffffffffffffffffffffffffffffffff1684604051808473ffffffffffffffffffffffffffffffffffffffff1673ffffffffffffffffffffffffffffffffffffffff1681526020018373ffffffffffffffffffffffffffffffffffffffff1673ffffffffffffffffffffffffffffffffffffffff168152602001828152602001935050505060405180910390a161087d600182610ac190919063ffffffff16565b506106f6565b5050565b6000809054906101000a900473ffffffffffffffffffffffffffffffffffffffff1673ffffffffffffffffffffffffffffffffffffffff163373ffffffffffffffffffffffffffffffffffffffff161415156108e257600080fd5b6108eb81610b2b565b50565b6001818154811015156108fd57fe5b90600052602060002090600202016000915090508060000160009054906101000a900473ffffffffffffffffffffffffffffffffffffffff16908060010154905082565b60025481565b61094f610c25565b60408051908101604052808473ffffffffffffffffffffffffffffffffffffffff1681526020018381525090506001819080600181540180825580915050906001820390600052602060002090600202016000909192909190915060008201518160000160006101000a81548173ffffffffffffffffffffffffffffffffffffffff021916908373ffffffffffffffffffffffffffffffffffffffff160217905550602082015181600101555050507f6c88197a2b84768252871f5e05f0253df350019b5a88f8a18e34f5da66e019f28330843073ffffffffffffffffffffffffffffffffffffffff1631604051808573ffffffffffffffffffffffffffffffffffffffff1673ffffffffffffffffffffffffffffffffffffffff1681526020018473ffffffffffffffffffffffffffffffffffffffff1673ffffffffffffffffffffffffffffffffffffffff16815260200183815260200182815260200194505050505060405180910390a1505050565b60008183019050828110151515610ad457fe5b80905092915050565b60008183811515610aea57fe5b04905092915050565b600080831415610b065760009050610b25565b8183029050818382811515610b1757fe5b04141515610b2157fe5b8090505b92915050565b600073ffffffffffffffffffffffffffffffffffffffff168173ffffffffffffffffffffffffffffffffffffffff1614151515610b6757600080fd5b8073ffffffffffffffffffffffffffffffffffffffff166000809054906101000a900473ffffffffffffffffffffffffffffffffffffffff1673ffffffffffffffffffffffffffffffffffffffff167f8be0079c531659141344cd1fd0a4f28419497f9722a3daafe3b4186f6b6457e060405160405180910390a3806000806101000a81548173ffffffffffffffffffffffffffffffffffffffff021916908373ffffffffffffffffffffffffffffffffffffffff16021790555050565b6040805190810160405280600073ffffffffffffffffffffffffffffffffffffffff1681526020016000815250905600a165627a7a72305820f4928b6a54676c1ce2c628783cc7ad48f5ce738360e8a59edba9f39f29e5b6640029a165627a7a72305820f123fec6efab7671c025f456065c8e0d0fa986c1d0ee27ef2767a5d92916fb790029",
  "source": "pragma solidity ^0.4.24;\n\nimport \"./TeamFactory.sol\";\nimport \"openzeppelin-solidity/contracts/math/SafeMath.sol\";\n\ncontract Match is TeamFactory {\n    string team1;\n    string team2;\n    address winnerAddress;\n\n    constructor(string _team1Name, string _team2Name, address _owner) public {\n        owner = _owner;\n        team1 = _team1Name;\n        team2 = _team2Name;\n    }\n\n    // function getMatchResult(string _winnerAddress) public onlyOwner {\n    //     //will get winner from oraclize\n    //     winnerAddress = teams[_winnerAddress];\n    //     sendMatchResult(teams[_winnerAddress]);\n    // }\n\n    function sendMatchResult(string _winner) public onlyOwner {\n        for (uint i = 0; i < teamAddresses.length; i++) {\n            Team(teamAddresses[i]).payoutTeam(teams[_winner]);\n        }\n    }\n\n    function payOutHouse() public onlyOwner {\n        Team(winnerAddress).payoutHouse(owner);\n    }\n\n    function payOutPlayers() public onlyOwner {\n        Team(winnerAddress).payoutPlayers();\n    }\n}\n\n\n\n\n",
  "sourcePath": "/Users/jarenlynch/Ethereum/SportApp/contracts/Match.sol",
  "compiler": {
    "name": "solc",
    "version": "0.4.24+commit.e67f0147.Emscripten.clang"
  },
  "schemaVersion": "2.0.1",
  "updatedAt": "2018-08-06T22:31:00.603Z"
}