{
  "contractName": "Match",
  "abi": [
    {
      "constant": false,
      "inputs": [
        {
          "name": "_team1",
          "type": "string"
        },
        {
          "name": "_team2",
          "type": "string"
        }
      ],
      "name": "createTeam",
      "outputs": [],
      "payable": false,
      "stateMutability": "nonpayable",
      "type": "function"
    },
    {
      "constant": false,
      "inputs": [],
      "name": "renounceOwnership",
      "outputs": [],
      "payable": false,
      "stateMutability": "nonpayable",
      "type": "function"
    },
    {
      "constant": true,
      "inputs": [],
      "name": "owner",
      "outputs": [
        {
          "name": "",
          "type": "address"
        }
      ],
      "payable": false,
      "stateMutability": "view",
      "type": "function"
    },
    {
      "constant": false,
      "inputs": [
        {
          "name": "_newOwner",
          "type": "address"
        }
      ],
      "name": "transferOwnership",
      "outputs": [],
      "payable": false,
      "stateMutability": "nonpayable",
      "type": "function"
    },
    {
      "inputs": [
        {
          "name": "_team1",
          "type": "string"
        },
        {
          "name": "_team2",
          "type": "string"
        },
        {
          "name": "_owner",
          "type": "address"
        }
      ],
      "payable": false,
      "stateMutability": "nonpayable",
      "type": "constructor"
    },
    {
      "anonymous": false,
      "inputs": [
        {
          "indexed": false,
          "name": "playerAddress",
          "type": "address"
        },
        {
          "indexed": false,
          "name": "playerBet",
          "type": "uint256"
        },
        {
          "indexed": false,
          "name": "teamAddress",
          "type": "address"
        },
        {
          "indexed": false,
          "name": "teamBalance",
          "type": "uint256"
        },
        {
          "indexed": false,
          "name": "contractBalance",
          "type": "uint256"
        }
      ],
      "name": "PlayerAdded",
      "type": "event"
    },
    {
      "anonymous": false,
      "inputs": [
        {
          "indexed": false,
          "name": "winnerAddress",
          "type": "address"
        },
        {
          "indexed": false,
          "name": "winnerTeamName",
          "type": "string"
        }
      ],
      "name": "WinnerReceived",
      "type": "event"
    },
    {
      "anonymous": false,
      "inputs": [
        {
          "indexed": false,
          "name": "from",
          "type": "address"
        },
        {
          "indexed": false,
          "name": "to",
          "type": "address"
        },
        {
          "indexed": false,
          "name": "amount",
          "type": "uint256"
        },
        {
          "indexed": false,
          "name": "contractBalance",
          "type": "uint256"
        }
      ],
      "name": "HousePaid",
      "type": "event"
    },
    {
      "anonymous": false,
      "inputs": [
        {
          "indexed": false,
          "name": "from",
          "type": "address"
        },
        {
          "indexed": false,
          "name": "to",
          "type": "address"
        },
        {
          "indexed": false,
          "name": "amount",
          "type": "uint256"
        },
        {
          "indexed": false,
          "name": "contractBalance",
          "type": "uint256"
        }
      ],
      "name": "PlayerPaid",
      "type": "event"
    },
    {
      "anonymous": false,
      "inputs": [
        {
          "indexed": false,
          "name": "finalMatchBalance",
          "type": "uint256"
        }
      ],
      "name": "MatchClosed",
      "type": "event"
    },
    {
      "anonymous": false,
      "inputs": [
        {
          "indexed": false,
          "name": "team1Address",
          "type": "address"
        },
        {
          "indexed": false,
          "name": "team1Name",
          "type": "string"
        },
        {
          "indexed": false,
          "name": "team2Address",
          "type": "address"
        },
        {
          "indexed": false,
          "name": "team2Name",
          "type": "string"
        }
      ],
      "name": "TeamCreated",
      "type": "event"
    },
    {
      "anonymous": false,
      "inputs": [
        {
          "indexed": true,
          "name": "previousOwner",
          "type": "address"
        }
      ],
      "name": "OwnershipRenounced",
      "type": "event"
    },
    {
      "anonymous": false,
      "inputs": [
        {
          "indexed": true,
          "name": "previousOwner",
          "type": "address"
        },
        {
          "indexed": true,
          "name": "newOwner",
          "type": "address"
        }
      ],
      "name": "OwnershipTransferred",
      "type": "event"
    },
    {
      "constant": false,
      "inputs": [
        {
          "name": "_playerAddress",
          "type": "address"
        },
        {
          "name": "_teamBalance",
          "type": "uint256"
        }
      ],
      "name": "addPlayer",
      "outputs": [],
      "payable": true,
      "stateMutability": "payable",
      "type": "function"
    },
    {
      "constant": false,
      "inputs": [],
      "name": "getMatchResult",
      "outputs": [],
      "payable": false,
      "stateMutability": "nonpayable",
      "type": "function"
    },
    {
      "constant": false,
      "inputs": [],
      "name": "payoutHouse",
      "outputs": [],
      "payable": false,
      "stateMutability": "nonpayable",
      "type": "function"
    },
    {
      "constant": false,
      "inputs": [
        {
          "name": "_playerAddress",
          "type": "address"
        },
        {
          "name": "_playerBet",
          "type": "uint256"
        },
        {
          "name": "_teamBalance",
          "type": "uint256"
        }
      ],
      "name": "payoutPlayer",
      "outputs": [],
      "payable": false,
      "stateMutability": "nonpayable",
      "type": "function"
    }
  ],
  "bytecode": "0x60806040523480156200001157600080fd5b50604051620019cc380380620019cc833981018060405281019080805182019291906020018051820192919060200180519060200190929190505050336000806101000a81548173ffffffffffffffffffffffffffffffffffffffff021916908373ffffffffffffffffffffffffffffffffffffffff160217905550806000806101000a81548173ffffffffffffffffffffffffffffffffffffffff021916908373ffffffffffffffffffffffffffffffffffffffff1602179055508260029080519060200190620000e592919062000108565b508160039080519060200190620000fe92919062000108565b50505050620001b7565b828054600181600116156101000203166002900490600052602060002090601f016020900481019282601f106200014b57805160ff19168380011785556200017c565b828001600101855582156200017c579182015b828111156200017b5782518255916020019190600101906200015e565b5b5090506200018b91906200018f565b5090565b620001b491905b80821115620001b057600081600090555060010162000196565b5090565b90565b61180580620001c76000396000f30060806040526004361061008e576000357c0100000000000000000000000000000000000000000000000000000000900463ffffffff16806301a682c1146100935780634a686381146101425780636766e448146101595780636fd075fc146101b0578063715018a6146101f05780638da5cb5b14610207578063f2fde38b1461025e578063fe01ba95146102a1575b600080fd5b34801561009f57600080fd5b50610140600480360381019080803590602001908201803590602001908080601f0160208091040260200160405190810160405280939291908181526020018383808284378201915050505050509192919290803590602001908201803590602001908080601f01602080910402602001604051908101604052809392919081815260200183838082843782019150505050505091929192905050506102b8565b005b34801561014e57600080fd5b50610157610777565b005b34801561016557600080fd5b506101ae600480360381019080803573ffffffffffffffffffffffffffffffffffffffff16906020019092919080359060200190929190803590602001909291905050506109a8565b005b6101ee600480360381019080803573ffffffffffffffffffffffffffffffffffffffff16906020019092919080359060200190929190505050610b31565b005b3480156101fc57600080fd5b50610205610bfb565b005b34801561021357600080fd5b5061021c610cfd565b604051808273ffffffffffffffffffffffffffffffffffffffff1673ffffffffffffffffffffffffffffffffffffffff16815260200191505060405180910390f35b34801561026a57600080fd5b5061029f600480360381019080803573ffffffffffffffffffffffffffffffffffffffff169060200190929190505050610d22565b005b3480156102ad57600080fd5b506102b6610d89565b005b6000806000809054906101000a900473ffffffffffffffffffffffffffffffffffffffff1673ffffffffffffffffffffffffffffffffffffffff163373ffffffffffffffffffffffffffffffffffffffff1614151561031657600080fd5b8330610320611091565b80806020018373ffffffffffffffffffffffffffffffffffffffff1673ffffffffffffffffffffffffffffffffffffffff168152602001828103825284818151815260200191508051906020019080838360005b8381101561038f578082015181840152602081019050610374565b50505050905090810190601f1680156103bc5780820380516001836020036101000a031916815260200191505b509350505050604051809103906000f0801580156103de573d6000803e3d6000fd5b509150816001856040518082805190602001908083835b60208310151561041a57805182526020820191506020810190506020830392506103f5565b6001836020036101000a038019825116818451168082178552505050505050905001915050908152602001604051809103902060006101000a81548173ffffffffffffffffffffffffffffffffffffffff021916908373ffffffffffffffffffffffffffffffffffffffff1602179055508230610495611091565b80806020018373ffffffffffffffffffffffffffffffffffffffff1673ffffffffffffffffffffffffffffffffffffffff168152602001828103825284818151815260200191508051906020019080838360005b838110156105045780820151818401526020810190506104e9565b50505050905090810190601f1680156105315780820380516001836020036101000a031916815260200191505b509350505050604051809103906000f080158015610553573d6000803e3d6000fd5b509050806001846040518082805190602001908083835b60208310151561058f578051825260208201915060208101905060208303925061056a565b6001836020036101000a038019825116818451168082178552505050505050905001915050908152602001604051809103902060006101000a81548173ffffffffffffffffffffffffffffffffffffffff021916908373ffffffffffffffffffffffffffffffffffffffff1602179055507fa04c3d8604756b9c9669aa604cb70d290875b300362195438ddf63836e906ae282858386604051808573ffffffffffffffffffffffffffffffffffffffff1673ffffffffffffffffffffffffffffffffffffffff168152602001806020018473ffffffffffffffffffffffffffffffffffffffff1673ffffffffffffffffffffffffffffffffffffffff16815260200180602001838103835286818151815260200191508051906020019080838360005b838110156106cd5780820151818401526020810190506106b2565b50505050905090810190601f1680156106fa5780820380516001836020036101000a031916815260200191505b50838103825284818151815260200191508051906020019080838360005b83811015610733578082015181840152602081019050610718565b50505050905090810190601f1680156107605780820380516001836020036101000a031916815260200191505b50965050505050505060405180910390a150505050565b6040805190810160405280600581526020017f6368696e61000000000000000000000000000000000000000000000000000000815250600490805190602001906107c29291906110a1565b506001600460405180828054600181600116156101000203166002900480156108225780601f10610800576101008083540402835291820191610822565b820191906000526020600020905b81548152906001019060200180831161080e575b5050915050908152602001604051809103902060009054906101000a900473ffffffffffffffffffffffffffffffffffffffff16600560006101000a81548173ffffffffffffffffffffffffffffffffffffffff021916908373ffffffffffffffffffffffffffffffffffffffff1602179055507ff42d6462d3e3227e2475bdc64521186bcb64be0dab77719c00d73e506904d22d600560009054906101000a900473ffffffffffffffffffffffffffffffffffffffff166004604051808373ffffffffffffffffffffffffffffffffffffffff1673ffffffffffffffffffffffffffffffffffffffff168152602001806020018281038252838181546001816001161561010002031660029004815260200191508054600181600116156101000203166002900480156109975780601f1061096c57610100808354040283529160200191610997565b820191906000526020600020905b81548152906001019060200180831161097a57829003601f168201915b5050935050505060405180910390a1565b6000809054906101000a900473ffffffffffffffffffffffffffffffffffffffff1673ffffffffffffffffffffffffffffffffffffffff163373ffffffffffffffffffffffffffffffffffffffff16141515610a0357600080fd5b8273ffffffffffffffffffffffffffffffffffffffff166108fc823073ffffffffffffffffffffffffffffffffffffffff16318502811515610a4157fe5b049081150290604051600060405180830381858888f19350505050158015610a6d573d6000803e3d6000fd5b507fc457fd4faf3985d75400e18de5bd36082b5dab89e9fa4aa56ac19b1257e03f543084843073ffffffffffffffffffffffffffffffffffffffff1631604051808573ffffffffffffffffffffffffffffffffffffffff1673ffffffffffffffffffffffffffffffffffffffff1681526020018473ffffffffffffffffffffffffffffffffffffffff1673ffffffffffffffffffffffffffffffffffffffff16815260200183815260200182815260200194505050505060405180910390a1505050565b7f6b7f62f7b3821ca698f256a9a7b5da3ed67d265aeb6f01f6f3e110dffa0f7f75823433843073ffffffffffffffffffffffffffffffffffffffff1631604051808673ffffffffffffffffffffffffffffffffffffffff1673ffffffffffffffffffffffffffffffffffffffff1681526020018581526020018473ffffffffffffffffffffffffffffffffffffffff1673ffffffffffffffffffffffffffffffffffffffff1681526020018381526020018281526020019550505050505060405180910390a15050565b6000809054906101000a900473ffffffffffffffffffffffffffffffffffffffff1673ffffffffffffffffffffffffffffffffffffffff163373ffffffffffffffffffffffffffffffffffffffff16141515610c5657600080fd5b6000809054906101000a900473ffffffffffffffffffffffffffffffffffffffff1673ffffffffffffffffffffffffffffffffffffffff167ff8df31144d9c2f0f6b59d69b8b98abd5459d07f2742c4df920b25aae33c6482060405160405180910390a260008060006101000a81548173ffffffffffffffffffffffffffffffffffffffff021916908373ffffffffffffffffffffffffffffffffffffffff160217905550565b6000809054906101000a900473ffffffffffffffffffffffffffffffffffffffff1681565b6000809054906101000a900473ffffffffffffffffffffffffffffffffffffffff1673ffffffffffffffffffffffffffffffffffffffff163373ffffffffffffffffffffffffffffffffffffffff16141515610d7d57600080fd5b610d8681610f81565b50565b6000809054906101000a900473ffffffffffffffffffffffffffffffffffffffff1673ffffffffffffffffffffffffffffffffffffffff163373ffffffffffffffffffffffffffffffffffffffff16141515610de457600080fd5b6000809054906101000a900473ffffffffffffffffffffffffffffffffffffffff1673ffffffffffffffffffffffffffffffffffffffff166108fc610e4a600a3073ffffffffffffffffffffffffffffffffffffffff163161107b90919063ffffffff16565b9081150290604051600060405180830381858888f19350505050158015610e75573d6000803e3d6000fd5b507fd35125ba261e6a65740fd4ea4ba6d51b85ff5512f5f201e4037dc381e3edce37306000809054906101000a900473ffffffffffffffffffffffffffffffffffffffff16610ee5600a3073ffffffffffffffffffffffffffffffffffffffff163161107b90919063ffffffff16565b3073ffffffffffffffffffffffffffffffffffffffff1631604051808573ffffffffffffffffffffffffffffffffffffffff1673ffffffffffffffffffffffffffffffffffffffff1681526020018473ffffffffffffffffffffffffffffffffffffffff1673ffffffffffffffffffffffffffffffffffffffff16815260200183815260200182815260200194505050505060405180910390a1565b600073ffffffffffffffffffffffffffffffffffffffff168173ffffffffffffffffffffffffffffffffffffffff1614151515610fbd57600080fd5b8073ffffffffffffffffffffffffffffffffffffffff166000809054906101000a900473ffffffffffffffffffffffffffffffffffffffff1673ffffffffffffffffffffffffffffffffffffffff167f8be0079c531659141344cd1fd0a4f28419497f9722a3daafe3b4186f6b6457e060405160405180910390a3806000806101000a81548173ffffffffffffffffffffffffffffffffffffffff021916908373ffffffffffffffffffffffffffffffffffffffff16021790555050565b6000818381151561108857fe5b04905092915050565b6040516106938061114783390190565b828054600181600116156101000203166002900490600052602060002090601f016020900481019282601f106110e257805160ff1916838001178555611110565b82800160010185558215611110579182015b8281111561110f5782518255916020019190600101906110f4565b5b50905061111d9190611121565b5090565b61114391905b8082111561113f576000816000905550600101611127565b5090565b905600608060405234801561001057600080fd5b506040516106933803806106938339810180604052810190808051820192919060200180519060200190929190505050336000806101000a81548173ffffffffffffffffffffffffffffffffffffffff021916908373ffffffffffffffffffffffffffffffffffffffff160217905550806000806101000a81548173ffffffffffffffffffffffffffffffffffffffff021916908373ffffffffffffffffffffffffffffffffffffffff16021790555081600190805190602001906100d69291906100e6565b506000600281905550505061018b565b828054600181600116156101000203166002900490600052602060002090601f016020900481019282601f1061012757805160ff1916838001178555610155565b82800160010185558215610155579182015b82811115610154578251825591602001919060010190610139565b5b5090506101629190610166565b5090565b61018891905b8082111561018457600081600090555060010161016c565b5090565b90565b6104f98061019a6000396000f300608060405260043610610062576000357c0100000000000000000000000000000000000000000000000000000000900463ffffffff168063715018a61461006c5780638da5cb5b14610083578063f2fde38b146100da578063f90f45601461011d575b61006a610127565b005b34801561007857600080fd5b50610081610229565b005b34801561008f57600080fd5b5061009861032b565b604051808273ffffffffffffffffffffffffffffffffffffffff1673ffffffffffffffffffffffffffffffffffffffff16815260200191505060405180910390f35b3480156100e657600080fd5b5061011b600480360381019080803573ffffffffffffffffffffffffffffffffffffffff169060200190929190505050610350565b005b610125610127565b005b600061013e346002546103b790919063ffffffff16565b6002819055506000809054906101000a900473ffffffffffffffffffffffffffffffffffffffff1690508073ffffffffffffffffffffffffffffffffffffffff16636fd075fc34336002546040518463ffffffff167c0100000000000000000000000000000000000000000000000000000000028152600401808373ffffffffffffffffffffffffffffffffffffffff1673ffffffffffffffffffffffffffffffffffffffff168152602001828152602001925050506000604051808303818588803b15801561020d57600080fd5b505af1158015610221573d6000803e3d6000fd5b505050505050565b6000809054906101000a900473ffffffffffffffffffffffffffffffffffffffff1673ffffffffffffffffffffffffffffffffffffffff163373ffffffffffffffffffffffffffffffffffffffff1614151561028457600080fd5b6000809054906101000a900473ffffffffffffffffffffffffffffffffffffffff1673ffffffffffffffffffffffffffffffffffffffff167ff8df31144d9c2f0f6b59d69b8b98abd5459d07f2742c4df920b25aae33c6482060405160405180910390a260008060006101000a81548173ffffffffffffffffffffffffffffffffffffffff021916908373ffffffffffffffffffffffffffffffffffffffff160217905550565b6000809054906101000a900473ffffffffffffffffffffffffffffffffffffffff1681565b6000809054906101000a900473ffffffffffffffffffffffffffffffffffffffff1673ffffffffffffffffffffffffffffffffffffffff163373ffffffffffffffffffffffffffffffffffffffff161415156103ab57600080fd5b6103b4816103d3565b50565b600081830190508281101515156103ca57fe5b80905092915050565b600073ffffffffffffffffffffffffffffffffffffffff168173ffffffffffffffffffffffffffffffffffffffff161415151561040f57600080fd5b8073ffffffffffffffffffffffffffffffffffffffff166000809054906101000a900473ffffffffffffffffffffffffffffffffffffffff1673ffffffffffffffffffffffffffffffffffffffff167f8be0079c531659141344cd1fd0a4f28419497f9722a3daafe3b4186f6b6457e060405160405180910390a3806000806101000a81548173ffffffffffffffffffffffffffffffffffffffff021916908373ffffffffffffffffffffffffffffffffffffffff160217905550505600a165627a7a72305820b22c3a2ac37c0db592bb926bed36134a0e179b9820887f0dfe4aa839c6eae0c00029a165627a7a72305820e05c1e38c06030fa9ae4c8faa2ee371fae3eff00e1523cfe10a4fbf0dc1042fe0029",
  "source": "pragma solidity ^0.4.24;\n\nimport \"./TeamFactory.sol\";\nimport \"openzeppelin-solidity/contracts/math/SafeMath.sol\";\n\ncontract Match is TeamFactory {\n    using SafeMath for uint256;\n    string team1;\n    string team2;\n    string winner;\n    address winnerAddress;\n\n    event PlayerAdded(address playerAddress, uint playerBet, address teamAddress, uint teamBalance, uint contractBalance);\n    event WinnerReceived(address winnerAddress, string winnerTeamName);\n    event HousePaid(address from, address to, uint amount, uint contractBalance);\n    event PlayerPaid(address from, address to, uint amount, uint contractBalance);\n    event MatchClosed(uint finalMatchBalance);\n\n    constructor(string _team1, string _team2, address _owner) public {\n        owner = _owner;\n        team1 = _team1;\n        team2 = _team2;\n    }\n\n    function addPlayer(address _playerAddress, uint _teamBalance) public payable {\n        emit PlayerAdded(_playerAddress, msg.value, msg.sender, _teamBalance, address(this).balance);\n    }\n\n    function getMatchResult() public {\n        //will get winner from oraclize\n        winner = \"china\";\n        //goal - this should be gotten from event filter in js\n        winnerAddress = teamMappings[winner];\n        emit WinnerReceived(winnerAddress, winner);\n    }\n\n    function payoutHouse() public onlyOwner {\n        //sends house 10% cut\n        owner.transfer(address(this).balance.div(10)); \n        emit HousePaid(address(this), owner, address(this).balance.div(10), address(this).balance);\n    }\n\n    function payoutPlayer(address _playerAddress, uint _playerBet, uint _teamBalance) public onlyOwner {\n        //should not do for loop. get array in js then iterate and call payoutplayers ***_playerAddress\n        // for (uint i = 0; i < players[winnerAddress].length; i = i.add(1)) {\n        _playerAddress.transfer((_playerBet * address(this).balance) / _teamBalance);\n        emit PlayerPaid(address(this), _playerAddress, _playerBet, address(this).balance);\n    }\n}\n\n\n\n  \n",
  "sourcePath": "/Users/jarenlynch/Ethereum/SportApp/contracts/Match.sol",
  "compiler": {
    "name": "solc",
    "version": "0.4.24+commit.e67f0147.Emscripten.clang"
  },
  "schemaVersion": "2.0.1",
  "updatedAt": "2018-08-17T04:54:45.877Z"
}