{
  "contractName": "Team",
  "abi": [
    {
      "constant": false,
      "inputs": [],
      "name": "renounceOwnership",
      "outputs": [],
      "payable": false,
      "stateMutability": "nonpayable",
      "type": "function"
    },
    {
      "constant": true,
      "inputs": [],
      "name": "owner",
      "outputs": [
        {
          "name": "",
          "type": "address"
        }
      ],
      "payable": false,
      "stateMutability": "view",
      "type": "function"
    },
    {
      "constant": false,
      "inputs": [
        {
          "name": "_newOwner",
          "type": "address"
        }
      ],
      "name": "transferOwnership",
      "outputs": [],
      "payable": false,
      "stateMutability": "nonpayable",
      "type": "function"
    },
    {
      "constant": true,
      "inputs": [
        {
          "name": "",
          "type": "uint256"
        }
      ],
      "name": "players",
      "outputs": [
        {
          "name": "playerAddress",
          "type": "address"
        },
        {
          "name": "playerBet",
          "type": "uint256"
        }
      ],
      "payable": false,
      "stateMutability": "view",
      "type": "function"
    },
    {
      "inputs": [
        {
          "name": "_owner",
          "type": "address"
        },
        {
          "name": "_teamName",
          "type": "string"
        },
        {
          "name": "_houseAddress",
          "type": "address"
        }
      ],
      "payable": false,
      "stateMutability": "nonpayable",
      "type": "constructor"
    },
    {
      "payable": true,
      "stateMutability": "payable",
      "type": "fallback"
    },
    {
      "anonymous": false,
      "inputs": [
        {
          "indexed": false,
          "name": "from",
          "type": "address"
        },
        {
          "indexed": false,
          "name": "to",
          "type": "address"
        },
        {
          "indexed": false,
          "name": "amount",
          "type": "uint256"
        },
        {
          "indexed": false,
          "name": "contractBalance",
          "type": "uint256"
        }
      ],
      "name": "TeamPaid",
      "type": "event"
    },
    {
      "anonymous": false,
      "inputs": [
        {
          "indexed": false,
          "name": "from",
          "type": "address"
        },
        {
          "indexed": false,
          "name": "to",
          "type": "address"
        },
        {
          "indexed": false,
          "name": "amount",
          "type": "uint256"
        },
        {
          "indexed": false,
          "name": "contractBalance",
          "type": "uint256"
        }
      ],
      "name": "HousePaid",
      "type": "event"
    },
    {
      "anonymous": false,
      "inputs": [
        {
          "indexed": false,
          "name": "from",
          "type": "address"
        },
        {
          "indexed": false,
          "name": "to",
          "type": "address"
        },
        {
          "indexed": false,
          "name": "amount",
          "type": "uint256"
        },
        {
          "indexed": false,
          "name": "contractBalance",
          "type": "uint256"
        }
      ],
      "name": "PlayerPaid",
      "type": "event"
    },
    {
      "anonymous": false,
      "inputs": [
        {
          "indexed": false,
          "name": "playerAddress",
          "type": "address"
        },
        {
          "indexed": false,
          "name": "teamAddress",
          "type": "address"
        },
        {
          "indexed": false,
          "name": "playerBet",
          "type": "uint256"
        },
        {
          "indexed": false,
          "name": "contractBalance",
          "type": "uint256"
        }
      ],
      "name": "PlayerAdded",
      "type": "event"
    },
    {
      "anonymous": false,
      "inputs": [
        {
          "indexed": true,
          "name": "previousOwner",
          "type": "address"
        }
      ],
      "name": "OwnershipRenounced",
      "type": "event"
    },
    {
      "anonymous": false,
      "inputs": [
        {
          "indexed": true,
          "name": "previousOwner",
          "type": "address"
        },
        {
          "indexed": true,
          "name": "newOwner",
          "type": "address"
        }
      ],
      "name": "OwnershipTransferred",
      "type": "event"
    },
    {
      "constant": false,
      "inputs": [],
      "name": "placeBet",
      "outputs": [],
      "payable": true,
      "stateMutability": "payable",
      "type": "function"
    },
    {
      "constant": false,
      "inputs": [
        {
          "name": "_winnerAddress",
          "type": "address"
        }
      ],
      "name": "payoutWinner",
      "outputs": [],
      "payable": false,
      "stateMutability": "nonpayable",
      "type": "function"
    },
    {
      "constant": false,
      "inputs": [],
      "name": "payoutPlayers",
      "outputs": [],
      "payable": true,
      "stateMutability": "payable",
      "type": "function"
    }
  ],
  "bytecode": "0x608060405234801561001057600080fd5b50604051610df1380380610df1833981018060405281019080805190602001909291908051820192919060200180519060200190929190505050336000806101000a81548173ffffffffffffffffffffffffffffffffffffffff021916908373ffffffffffffffffffffffffffffffffffffffff160217905550826000806101000a81548173ffffffffffffffffffffffffffffffffffffffff021916908373ffffffffffffffffffffffffffffffffffffffff16021790555080600560006101000a81548173ffffffffffffffffffffffffffffffffffffffff021916908373ffffffffffffffffffffffffffffffffffffffff160217905550816002908051906020019061012192919061012a565b505050506101cf565b828054600181600116156101000203166002900490600052602060002090601f016020900481019282601f1061016b57805160ff1916838001178555610199565b82800160010185558215610199579182015b8281111561019857825182559160200191906001019061017d565b5b5090506101a691906101aa565b5090565b6101cc91905b808211156101c85760008160009055506001016101b0565b5090565b90565b610c13806101de6000396000f300608060405260043610610083576000357c0100000000000000000000000000000000000000000000000000000000900463ffffffff1680633f986e6a1461008d578063715018a6146100d05780638da5cb5b146100e7578063c448a6ac1461013e578063f2fde38b14610148578063f71d96cb1461018b578063f90f4560146101ff575b61008b610209565b005b34801561009957600080fd5b506100ce600480360381019080803573ffffffffffffffffffffffffffffffffffffffff169060200190929190505050610215565b005b3480156100dc57600080fd5b506100e5610329565b005b3480156100f357600080fd5b506100fc61042b565b604051808273ffffffffffffffffffffffffffffffffffffffff1673ffffffffffffffffffffffffffffffffffffffff16815260200191505060405180910390f35b610146610450565b005b34801561015457600080fd5b50610189600480360381019080803573ffffffffffffffffffffffffffffffffffffffff16906020019092919050505061081f565b005b34801561019757600080fd5b506101b660048036038101908080359060200190929190505050610886565b604051808373ffffffffffffffffffffffffffffffffffffffff1673ffffffffffffffffffffffffffffffffffffffff1681526020018281526020019250505060405180910390f35b610207610209565b005b61021333346108d9565b565b60003073ffffffffffffffffffffffffffffffffffffffff168273ffffffffffffffffffffffffffffffffffffffff16141515610250578190505b7ff3b7b16be1a1d01b05b4e45f7f2a29a2ff38fab09f608ac81e797456dd35c13730833073ffffffffffffffffffffffffffffffffffffffff16313073ffffffffffffffffffffffffffffffffffffffff1631604051808573ffffffffffffffffffffffffffffffffffffffff1673ffffffffffffffffffffffffffffffffffffffff1681526020018473ffffffffffffffffffffffffffffffffffffffff1673ffffffffffffffffffffffffffffffffffffffff16815260200183815260200182815260200194505050505060405180910390a15050565b6000809054906101000a900473ffffffffffffffffffffffffffffffffffffffff1673ffffffffffffffffffffffffffffffffffffffff163373ffffffffffffffffffffffffffffffffffffffff1614151561038457600080fd5b6000809054906101000a900473ffffffffffffffffffffffffffffffffffffffff1673ffffffffffffffffffffffffffffffffffffffff167ff8df31144d9c2f0f6b59d69b8b98abd5459d07f2742c4df920b25aae33c6482060405160405180910390a260008060006101000a81548173ffffffffffffffffffffffffffffffffffffffff021916908373ffffffffffffffffffffffffffffffffffffffff160217905550565b6000809054906101000a900473ffffffffffffffffffffffffffffffffffffffff1681565b6000600560009054906101000a900473ffffffffffffffffffffffffffffffffffffffff1673ffffffffffffffffffffffffffffffffffffffff166108fc6104b9600a3073ffffffffffffffffffffffffffffffffffffffff1631610a5390919063ffffffff16565b9081150290604051600060405180830381858888f193505050501580156104e4573d6000803e3d6000fd5b507fd35125ba261e6a65740fd4ea4ba6d51b85ff5512f5f201e4037dc381e3edce37306000809054906101000a900473ffffffffffffffffffffffffffffffffffffffff16610554600a3073ffffffffffffffffffffffffffffffffffffffff1631610a5390919063ffffffff16565b3073ffffffffffffffffffffffffffffffffffffffff1631604051808573ffffffffffffffffffffffffffffffffffffffff1673ffffffffffffffffffffffffffffffffffffffff1681526020018473ffffffffffffffffffffffffffffffffffffffff1673ffffffffffffffffffffffffffffffffffffffff16815260200183815260200182815260200194505050505060405180910390a1600090505b60018054905081101561081c576106736106443073ffffffffffffffffffffffffffffffffffffffff16313073ffffffffffffffffffffffffffffffffffffffff1631610a6990919063ffffffff16565b60018381548110151561065357fe5b906000526020600020906002020160010154610a5390919063ffffffff16565b60038190555060018181548110151561068857fe5b906000526020600020906002020160000160009054906101000a900473ffffffffffffffffffffffffffffffffffffffff1673ffffffffffffffffffffffffffffffffffffffff166108fc6003549081150290604051600060405180830381858888f19350505050158015610701573d6000803e3d6000fd5b507fc457fd4faf3985d75400e18de5bd36082b5dab89e9fa4aa56ac19b1257e03f543060018381548110151561073357fe5b906000526020600020906002020160000160009054906101000a900473ffffffffffffffffffffffffffffffffffffffff166003543073ffffffffffffffffffffffffffffffffffffffff1631604051808573ffffffffffffffffffffffffffffffffffffffff1673ffffffffffffffffffffffffffffffffffffffff1681526020018473ffffffffffffffffffffffffffffffffffffffff1673ffffffffffffffffffffffffffffffffffffffff16815260200183815260200182815260200194505050505060405180910390a1610816600182610aa190919063ffffffff16565b506105f3565b50565b6000809054906101000a900473ffffffffffffffffffffffffffffffffffffffff1673ffffffffffffffffffffffffffffffffffffffff163373ffffffffffffffffffffffffffffffffffffffff1614151561087a57600080fd5b61088381610abd565b50565b60018181548110151561089557fe5b90600052602060002090600202016000915090508060000160009054906101000a900473ffffffffffffffffffffffffffffffffffffffff16908060010154905082565b6108e1610bb7565b60408051908101604052808473ffffffffffffffffffffffffffffffffffffffff1681526020018381525090506001819080600181540180825580915050906001820390600052602060002090600202016000909192909190915060008201518160000160006101000a81548173ffffffffffffffffffffffffffffffffffffffff021916908373ffffffffffffffffffffffffffffffffffffffff160217905550602082015181600101555050507f6c88197a2b84768252871f5e05f0253df350019b5a88f8a18e34f5da66e019f28330843073ffffffffffffffffffffffffffffffffffffffff1631604051808573ffffffffffffffffffffffffffffffffffffffff1673ffffffffffffffffffffffffffffffffffffffff1681526020018473ffffffffffffffffffffffffffffffffffffffff1673ffffffffffffffffffffffffffffffffffffffff16815260200183815260200182815260200194505050505060405180910390a1505050565b60008183811515610a6057fe5b04905092915050565b600080831415610a7c5760009050610a9b565b8183029050818382811515610a8d57fe5b04141515610a9757fe5b8090505b92915050565b60008183019050828110151515610ab457fe5b80905092915050565b600073ffffffffffffffffffffffffffffffffffffffff168173ffffffffffffffffffffffffffffffffffffffff1614151515610af957600080fd5b8073ffffffffffffffffffffffffffffffffffffffff166000809054906101000a900473ffffffffffffffffffffffffffffffffffffffff1673ffffffffffffffffffffffffffffffffffffffff167f8be0079c531659141344cd1fd0a4f28419497f9722a3daafe3b4186f6b6457e060405160405180910390a3806000806101000a81548173ffffffffffffffffffffffffffffffffffffffff021916908373ffffffffffffffffffffffffffffffffffffffff16021790555050565b6040805190810160405280600073ffffffffffffffffffffffffffffffffffffffff1681526020016000815250905600a165627a7a723058203decd206c0f6ac5df51c7cc32c46e92b356cfa8965efbefde3edd7ccbebf998f0029",
  "source": "pragma solidity ^0.4.24;\n\nimport \"./PlayerFactory.sol\";\nimport \"openzeppelin-solidity/contracts/math/SafeMath.sol\";\n\ncontract Team is PlayerFactory {\n    using SafeMath for uint256;\n    string teamName;\n    uint playerCut;\n    address winnerAddress;\n    address houseAddress;\n    event TeamPaid(address from, address to, uint amount, uint contractBalance);\n    event HousePaid(address from, address to, uint amount, uint contractBalance);\n    event PlayerPaid(address from, address to, uint amount, uint contractBalance);\n\n    constructor(address _owner, string _teamName, address _houseAddress) public {\n        owner = _owner;\n        houseAddress = _houseAddress;\n        teamName = _teamName;\n    }\n\n    function () public payable {\n        placeBet();\n    }\n\n    //Eth recieved is new player, call createPlayer\n    function placeBet() public payable {\n        addPlayer(msg.sender, msg.value);\n    }\n\n    function payoutWinner(address _winnerAddress) public {\n        //sends contract balance to winning address, if winner, do nothing\n        if (_winnerAddress != address(this)) {\n            Team winner = Team(_winnerAddress);\n            winner.payoutPlayers.value(address(this).balance);\n        } \n        emit TeamPaid(address(this), _winnerAddress, address(this).balance, address(this).balance);\n    }\n\n    function payoutPlayers() public payable {\n        //sends house 10% cut\n        houseAddress.transfer((address(this).balance).div(10)); \n        emit HousePaid(address(this), owner, (address(this).balance).div(10), address(this).balance);\n\n        //sends player their winnings based on ratio. theirBet / pool * total\n        for (uint i = 0; i < players.length; i.add(1)) {\n            playerCut = ((players[i].playerBet).div((address(this).balance).mul(address(this).balance)));\n            (players[i].playerAddress).transfer(playerCut);\n            emit PlayerPaid(address(this), players[i].playerAddress, playerCut, address(this).balance);\n        }\n    }\n}",
  "sourcePath": "/Users/jarenlynch/Ethereum/SportApp/contracts/Team.sol",
  "compiler": {
    "name": "solc",
    "version": "0.4.24+commit.e67f0147.Emscripten.clang"
  },
  "schemaVersion": "2.0.1",
  "updatedAt": "2018-08-14T03:38:28.322Z"
}